{
  "contractName": "Football",
  "abi": [
    {
      "constant": true,
      "inputs": [],
      "name": "power_price",
      "outputs": [
        {
          "name": "",
          "type": "uint256"
        }
      ],
      "payable": false,
      "stateMutability": "view",
      "type": "function"
    },
    {
      "constant": true,
      "inputs": [],
      "name": "common_count",
      "outputs": [
        {
          "name": "",
          "type": "uint256"
        }
      ],
      "payable": false,
      "stateMutability": "view",
      "type": "function"
    },
    {
      "constant": true,
      "inputs": [],
      "name": "saleCardMap_cnt",
      "outputs": [
        {
          "name": "",
          "type": "uint256"
        }
      ],
      "payable": false,
      "stateMutability": "view",
      "type": "function"
    },
    {
      "constant": true,
      "inputs": [],
      "name": "userMap_cnt",
      "outputs": [
        {
          "name": "",
          "type": "uint256"
        }
      ],
      "payable": false,
      "stateMutability": "view",
      "type": "function"
    },
    {
      "constant": true,
      "inputs": [],
      "name": "rankMap_cnt",
      "outputs": [
        {
          "name": "",
          "type": "uint256"
        }
      ],
      "payable": false,
      "stateMutability": "view",
      "type": "function"
    },
    {
      "constant": true,
      "inputs": [
        {
          "name": "",
          "type": "uint256"
        },
        {
          "name": "",
          "type": "uint256"
        }
      ],
      "name": "user_team_map",
      "outputs": [
        {
          "name": "",
          "type": "uint256"
        }
      ],
      "payable": false,
      "stateMutability": "view",
      "type": "function"
    },
    {
      "constant": true,
      "inputs": [],
      "name": "vip_card_price",
      "outputs": [
        {
          "name": "",
          "type": "uint256"
        }
      ],
      "payable": false,
      "stateMutability": "view",
      "type": "function"
    },
    {
      "constant": true,
      "inputs": [],
      "name": "matchMap_cnt",
      "outputs": [
        {
          "name": "",
          "type": "uint256"
        }
      ],
      "payable": false,
      "stateMutability": "view",
      "type": "function"
    },
    {
      "constant": true,
      "inputs": [],
      "name": "cardMap_cnt",
      "outputs": [
        {
          "name": "",
          "type": "uint256"
        }
      ],
      "payable": false,
      "stateMutability": "view",
      "type": "function"
    },
    {
      "constant": true,
      "inputs": [],
      "name": "vip_count",
      "outputs": [
        {
          "name": "",
          "type": "uint256"
        }
      ],
      "payable": false,
      "stateMutability": "view",
      "type": "function"
    },
    {
      "constant": true,
      "inputs": [
        {
          "name": "",
          "type": "uint256"
        }
      ],
      "name": "contest_map",
      "outputs": [
        {
          "name": "",
          "type": "uint256"
        }
      ],
      "payable": false,
      "stateMutability": "view",
      "type": "function"
    },
    {
      "constant": true,
      "inputs": [
        {
          "name": "",
          "type": "uint256"
        }
      ],
      "name": "contest_list",
      "outputs": [
        {
          "name": "my_id",
          "type": "uint256"
        },
        {
          "name": "challenger_id",
          "type": "uint256"
        },
        {
          "name": "my_score",
          "type": "uint256"
        },
        {
          "name": "challenger_score",
          "type": "uint256"
        },
        {
          "name": "team_point",
          "type": "uint256"
        }
      ],
      "payable": false,
      "stateMutability": "view",
      "type": "function"
    },
    {
      "constant": true,
      "inputs": [
        {
          "name": "",
          "type": "uint256"
        },
        {
          "name": "",
          "type": "uint256"
        }
      ],
      "name": "user_contest_map",
      "outputs": [
        {
          "name": "",
          "type": "uint256"
        }
      ],
      "payable": false,
      "stateMutability": "view",
      "type": "function"
    },
    {
      "constant": true,
      "inputs": [
        {
          "name": "",
          "type": "uint256"
        }
      ],
      "name": "user_list",
      "outputs": [
        {
          "name": "user_address",
          "type": "address"
        },
        {
          "name": "last_time",
          "type": "uint256"
        },
        {
          "name": "power",
          "type": "uint256"
        },
        {
          "name": "user_card_cnt",
          "type": "uint256"
        },
        {
          "name": "user_contest_cnt",
          "type": "uint256"
        }
      ],
      "payable": false,
      "stateMutability": "view",
      "type": "function"
    },
    {
      "constant": true,
      "inputs": [
        {
          "name": "",
          "type": "uint256"
        },
        {
          "name": "",
          "type": "uint256"
        }
      ],
      "name": "user_card_map",
      "outputs": [
        {
          "name": "",
          "type": "uint256"
        }
      ],
      "payable": false,
      "stateMutability": "view",
      "type": "function"
    },
    {
      "constant": true,
      "inputs": [
        {
          "name": "",
          "type": "uint256"
        }
      ],
      "name": "card_list",
      "outputs": [
        {
          "name": "card_id",
          "type": "uint256"
        },
        {
          "name": "owner_id",
          "type": "uint256"
        },
        {
          "name": "player_id",
          "type": "uint256"
        },
        {
          "name": "level",
          "type": "uint256"
        },
        {
          "name": "on_market",
          "type": "bool"
        },
        {
          "name": "card_price",
          "type": "uint256"
        }
      ],
      "payable": false,
      "stateMutability": "view",
      "type": "function"
    },
    {
      "constant": true,
      "inputs": [],
      "name": "power_count",
      "outputs": [
        {
          "name": "",
          "type": "uint256"
        }
      ],
      "payable": false,
      "stateMutability": "view",
      "type": "function"
    },
    {
      "constant": true,
      "inputs": [
        {
          "name": "",
          "type": "uint256"
        },
        {
          "name": "",
          "type": "uint256"
        }
      ],
      "name": "onmarket_map",
      "outputs": [
        {
          "name": "",
          "type": "uint256"
        }
      ],
      "payable": false,
      "stateMutability": "view",
      "type": "function"
    },
    {
      "constant": true,
      "inputs": [],
      "name": "common_card_price",
      "outputs": [
        {
          "name": "",
          "type": "uint256"
        }
      ],
      "payable": false,
      "stateMutability": "view",
      "type": "function"
    },
    {
      "constant": true,
      "inputs": [
        {
          "name": "",
          "type": "uint256"
        }
      ],
      "name": "user_map",
      "outputs": [
        {
          "name": "",
          "type": "uint256"
        }
      ],
      "payable": false,
      "stateMutability": "view",
      "type": "function"
    },
    {
      "constant": true,
      "inputs": [],
      "name": "admin",
      "outputs": [
        {
          "name": "",
          "type": "address"
        }
      ],
      "payable": false,
      "stateMutability": "view",
      "type": "function"
    },
    {
      "inputs": [],
      "payable": false,
      "stateMutability": "nonpayable",
      "type": "constructor"
    },
    {
      "anonymous": false,
      "inputs": [
        {
          "indexed": true,
          "name": "_from",
          "type": "address"
        },
        {
          "indexed": true,
          "name": "_to",
          "type": "address"
        },
        {
          "indexed": false,
          "name": "_value",
          "type": "uint256"
        }
      ],
      "name": "Transfer",
      "type": "event"
    },
    {
      "constant": true,
      "inputs": [
        {
          "name": "begin",
          "type": "uint256"
        },
        {
          "name": "end",
          "type": "uint256"
        }
      ],
      "name": "random",
      "outputs": [
        {
          "name": "",
          "type": "uint256"
        }
      ],
      "payable": false,
      "stateMutability": "view",
      "type": "function"
    },
    {
      "constant": true,
      "inputs": [
        {
          "name": "begin",
          "type": "uint256"
        },
        {
          "name": "end",
          "type": "uint256"
        },
        {
          "name": "salt",
          "type": "uint256"
        }
      ],
      "name": "salt_random",
      "outputs": [
        {
          "name": "",
          "type": "uint256"
        }
      ],
      "payable": false,
      "stateMutability": "view",
      "type": "function"
    },
    {
      "constant": true,
      "inputs": [],
      "name": "get_matchMap_cnt",
      "outputs": [
        {
          "name": "",
          "type": "uint256"
        }
      ],
      "payable": false,
      "stateMutability": "view",
      "type": "function"
    },
    {
      "constant": true,
      "inputs": [],
      "name": "get_address",
      "outputs": [
        {
          "name": "",
          "type": "address"
        }
      ],
      "payable": false,
      "stateMutability": "view",
      "type": "function"
    },
    {
      "constant": true,
      "inputs": [],
      "name": "get_userMap_cnt",
      "outputs": [
        {
          "name": "",
          "type": "uint256"
        }
      ],
      "payable": false,
      "stateMutability": "view",
      "type": "function"
    },
    {
      "constant": true,
      "inputs": [],
      "name": "get_cardMap_cnt",
      "outputs": [
        {
          "name": "",
          "type": "uint256"
        }
      ],
      "payable": false,
      "stateMutability": "view",
      "type": "function"
    },
    {
      "constant": true,
      "inputs": [],
      "name": "get_vip_count",
      "outputs": [
        {
          "name": "",
          "type": "uint256"
        }
      ],
      "payable": false,
      "stateMutability": "view",
      "type": "function"
    },
    {
      "constant": true,
      "inputs": [],
      "name": "get_common_count",
      "outputs": [
        {
          "name": "",
          "type": "uint256"
        }
      ],
      "payable": false,
      "stateMutability": "view",
      "type": "function"
    },
    {
      "constant": true,
      "inputs": [],
      "name": "get_power_count",
      "outputs": [
        {
          "name": "",
          "type": "uint256"
        }
      ],
      "payable": false,
      "stateMutability": "view",
      "type": "function"
    },
    {
      "constant": true,
      "inputs": [],
      "name": "get_saleCardMap_cnt",
      "outputs": [
        {
          "name": "",
          "type": "uint256"
        }
      ],
      "payable": false,
      "stateMutability": "view",
      "type": "function"
    },
    {
      "constant": true,
      "inputs": [],
      "name": "random_all_card",
      "outputs": [
        {
          "name": "",
          "type": "uint256"
        }
      ],
      "payable": false,
      "stateMutability": "view",
      "type": "function"
    },
    {
      "constant": true,
      "inputs": [
        {
          "name": "salt",
          "type": "uint256"
        }
      ],
      "name": "random_goalkeeper_card",
      "outputs": [
        {
          "name": "",
          "type": "uint256"
        }
      ],
      "payable": false,
      "stateMutability": "view",
      "type": "function"
    },
    {
      "constant": true,
      "inputs": [
        {
          "name": "salt",
          "type": "uint256"
        }
      ],
      "name": "random_not_goalkeeper_card",
      "outputs": [
        {
          "name": "",
          "type": "uint256"
        }
      ],
      "payable": false,
      "stateMutability": "view",
      "type": "function"
    },
    {
      "constant": true,
      "inputs": [],
      "name": "random_vip_card",
      "outputs": [
        {
          "name": "",
          "type": "uint256"
        }
      ],
      "payable": false,
      "stateMutability": "view",
      "type": "function"
    },
    {
      "constant": true,
      "inputs": [],
      "name": "random_common_card",
      "outputs": [
        {
          "name": "",
          "type": "uint256"
        }
      ],
      "payable": false,
      "stateMutability": "view",
      "type": "function"
    },
    {
      "constant": true,
      "inputs": [],
      "name": "get_admin",
      "outputs": [
        {
          "name": "",
          "type": "address"
        }
      ],
      "payable": false,
      "stateMutability": "view",
      "type": "function"
    },
    {
      "constant": true,
      "inputs": [],
      "name": "get_common_card_price",
      "outputs": [
        {
          "name": "",
          "type": "uint256"
        }
      ],
      "payable": false,
      "stateMutability": "view",
      "type": "function"
    },
    {
      "constant": true,
      "inputs": [],
      "name": "get_vip_card_price",
      "outputs": [
        {
          "name": "",
          "type": "uint256"
        }
      ],
      "payable": false,
      "stateMutability": "view",
      "type": "function"
    },
    {
      "constant": true,
      "inputs": [],
      "name": "get_power_price",
      "outputs": [
        {
          "name": "",
          "type": "uint256"
        }
      ],
      "payable": false,
      "stateMutability": "view",
      "type": "function"
    },
    {
      "constant": false,
      "inputs": [
        {
          "name": "price",
          "type": "uint256"
        }
      ],
      "name": "set_common_card_price",
      "outputs": [],
      "payable": false,
      "stateMutability": "nonpayable",
      "type": "function"
    },
    {
      "constant": false,
      "inputs": [
        {
          "name": "price",
          "type": "uint256"
        }
      ],
      "name": "set_vip_card_price",
      "outputs": [],
      "payable": false,
      "stateMutability": "nonpayable",
      "type": "function"
    },
    {
      "constant": false,
      "inputs": [
        {
          "name": "price",
          "type": "uint256"
        }
      ],
      "name": "set_power_price",
      "outputs": [],
      "payable": false,
      "stateMutability": "nonpayable",
      "type": "function"
    },
    {
      "constant": false,
      "inputs": [],
      "name": "user_register",
      "outputs": [],
      "payable": false,
      "stateMutability": "nonpayable",
      "type": "function"
    },
    {
      "constant": true,
      "inputs": [],
      "name": "user_login",
      "outputs": [
        {
          "name": "",
          "type": "address"
        },
        {
          "name": "",
          "type": "uint256"
        },
        {
          "name": "",
          "type": "uint256"
        },
        {
          "name": "",
          "type": "uint256"
        },
        {
          "name": "",
          "type": "uint256"
        }
      ],
      "payable": false,
      "stateMutability": "view",
      "type": "function"
    },
    {
      "constant": true,
      "inputs": [
        {
          "name": "user_id",
          "type": "uint256"
        }
      ],
      "name": "get_user_address",
      "outputs": [
        {
          "name": "",
          "type": "address"
        }
      ],
      "payable": false,
      "stateMutability": "view",
      "type": "function"
    },
    {
      "constant": true,
      "inputs": [
        {
          "name": "user_address",
          "type": "address"
        }
      ],
      "name": "get_user_id",
      "outputs": [
        {
          "name": "",
          "type": "uint256"
        }
      ],
      "payable": false,
      "stateMutability": "view",
      "type": "function"
    },
    {
      "constant": true,
      "inputs": [],
      "name": "get_user_count",
      "outputs": [
        {
          "name": "",
          "type": "uint256"
        }
      ],
      "payable": false,
      "stateMutability": "view",
      "type": "function"
    },
    {
      "constant": true,
      "inputs": [
        {
          "name": "user_address",
          "type": "address"
        }
      ],
      "name": "get_user_team",
      "outputs": [
        {
          "name": "",
          "type": "uint256[5]"
        }
      ],
      "payable": false,
      "stateMutability": "view",
      "type": "function"
    },
    {
      "constant": true,
      "inputs": [],
      "name": "get_user_all_card",
      "outputs": [
        {
          "name": "",
          "type": "uint256[999]"
        },
        {
          "name": "",
          "type": "uint256"
        }
      ],
      "payable": false,
      "stateMutability": "view",
      "type": "function"
    },
    {
      "constant": false,
      "inputs": [
        {
          "name": "value",
          "type": "uint256"
        }
      ],
      "name": "buy_power",
      "outputs": [],
      "payable": true,
      "stateMutability": "payable",
      "type": "function"
    },
    {
      "constant": true,
      "inputs": [
        {
          "name": "card_id",
          "type": "uint256"
        }
      ],
      "name": "get_card_info",
      "outputs": [
        {
          "name": "",
          "type": "uint256"
        },
        {
          "name": "",
          "type": "uint256"
        },
        {
          "name": "",
          "type": "uint256"
        },
        {
          "name": "",
          "type": "uint256"
        },
        {
          "name": "",
          "type": "bool"
        },
        {
          "name": "",
          "type": "uint256"
        }
      ],
      "payable": false,
      "stateMutability": "view",
      "type": "function"
    },
    {
      "constant": true,
      "inputs": [
        {
          "name": "card_id",
          "type": "uint256"
        }
      ],
      "name": "judge_card_vip",
      "outputs": [
        {
          "name": "",
          "type": "bool"
        }
      ],
      "payable": false,
      "stateMutability": "view",
      "type": "function"
    },
    {
      "constant": false,
      "inputs": [
        {
          "name": "value",
          "type": "uint256"
        }
      ],
      "name": "buy_common_card",
      "outputs": [],
      "payable": true,
      "stateMutability": "payable",
      "type": "function"
    },
    {
      "constant": false,
      "inputs": [
        {
          "name": "value",
          "type": "uint256"
        }
      ],
      "name": "buy_vip_card",
      "outputs": [],
      "payable": true,
      "stateMutability": "payable",
      "type": "function"
    },
    {
      "constant": false,
      "inputs": [
        {
          "name": "old_card_id",
          "type": "uint256"
        },
        {
          "name": "new_card_id",
          "type": "uint256"
        }
      ],
      "name": "change_team",
      "outputs": [],
      "payable": false,
      "stateMutability": "nonpayable",
      "type": "function"
    },
    {
      "constant": true,
      "inputs": [
        {
          "name": "card_id",
          "type": "uint256"
        }
      ],
      "name": "is_card_in_team",
      "outputs": [
        {
          "name": "",
          "type": "bool"
        }
      ],
      "payable": false,
      "stateMutability": "view",
      "type": "function"
    },
    {
      "constant": false,
      "inputs": [
        {
          "name": "card_id",
          "type": "uint256"
        },
        {
          "name": "card_price",
          "type": "uint256"
        }
      ],
      "name": "sale_card",
      "outputs": [],
      "payable": false,
      "stateMutability": "nonpayable",
      "type": "function"
    },
    {
      "constant": true,
      "inputs": [],
      "name": "get_all_card_on_market",
      "outputs": [
        {
          "name": "",
          "type": "uint256[9999]"
        },
        {
          "name": "",
          "type": "uint256"
        }
      ],
      "payable": false,
      "stateMutability": "view",
      "type": "function"
    },
    {
      "constant": false,
      "inputs": [
        {
          "name": "card_id",
          "type": "uint256"
        }
      ],
      "name": "remove_card_from_user_card_map",
      "outputs": [],
      "payable": false,
      "stateMutability": "nonpayable",
      "type": "function"
    },
    {
      "constant": false,
      "inputs": [
        {
          "name": "card_id",
          "type": "uint256"
        },
        {
          "name": "value",
          "type": "uint256"
        }
      ],
      "name": "buy_card",
      "outputs": [],
      "payable": true,
      "stateMutability": "payable",
      "type": "function"
    },
    {
      "constant": false,
      "inputs": [
        {
          "name": "card_id",
          "type": "uint256"
        },
        {
          "name": "add",
          "type": "uint256"
        }
      ],
      "name": "add_level",
      "outputs": [],
      "payable": false,
      "stateMutability": "nonpayable",
      "type": "function"
    }
  ],
  "bytecode": "0x608060405260016009556001600a556005600b553480156200002057600080fd5b506200002b62000274565b62000035620002ba565b60008060006101000a81548173ffffffffffffffffffffffffffffffffffffffff021916908373ffffffffffffffffffffffffffffffffffffffff16021790555060018081905550600160028190555060016003819055506001600481905550600160058190555060016006819055506001600781905550600160088190555060036009819055506001600a819055506001600b8190555060a060405190810160405280600073ffffffffffffffffffffffffffffffffffffffff168152602001428152602001600081526020016000815260200160008152509150600f829080600181540180825580915050906001820390600052602060002090600502016000909192909190915060008201518160000160006101000a81548173ffffffffffffffffffffffffffffffffffffffff021916908373ffffffffffffffffffffffffffffffffffffffff1602179055506020820151816001015560408201518160020155606082015181600301556080820151816004015550505060c0604051908101604052806000815260200160008152602001600081526020016000815260200160001515815260200160008152509050600e81908060018154018082558091505090600182039060005260206000209060060201600090919290919091506000820151816000015560208201518160010155604082015181600201556060820151816003015560808201518160040160006101000a81548160ff02191690831515021790555060a082015181600501555050505050620002f3565b60a060405190810160405280600073ffffffffffffffffffffffffffffffffffffffff168152602001600081526020016000815260200160008152602001600081525090565b60c06040519081016040528060008152602001600081526020016000815260200160008152602001600015158152602001600081525090565b613d6c80620003036000396000f3006080604052600436106102e0576000357c0100000000000000000000000000000000000000000000000000000000900463ffffffff1680630131222f146102e55780630834896d1461033c578063099432db1461039757806309f4f075146103c25780630b8fd8f5146103ed57806313b618b314610418578063143e6f541461049757806315b35963146104b757806322956025146104e257806324dab17414610527578063289b7de71461055257806329ca11691461057d5780633c74a091146105a857806340905be7146105d357806340b8e1441461063b578063471bdc9e146106665780634a16066d1461069157806351acfd3b146106bc57806352b3c7411461070757806354c7c612146107325780635f8f447a1461078957806361807f00146107b45780636ea736c7146107e157806371017b3b1461082257806376a21f351461084f57806376e113a31461087a578063855dcc6b146108a55780638659c808146108d057806386ab3773146108fb578063874bd5151461093c5780638b0f7316146109675780638caa80a5146109be5780638dab0502146109f5578063a2462abc14610a36578063a4252b2314610a6d578063a5a994f914610aca578063a9dd122514610aea578063ab05ada714610b35578063b0ce739d14610b80578063b14be51e14610c09578063b18f41c214610c54578063b372afd814610c7f578063b6864ecc14610cb6578063b6fc4fdc14610d1e578063b8f15f9514610d49578063be15178414610d69578063c3a706cd14610d93578063c4f77c3714610dbe578063cdb803df14610e31578063dac80acc14610e5e578063dd5bf22d14610e89578063df8dc79114610eb6578063e1014afa14610f23578063e183859d14610f78578063e2b862cc14610fc3578063e80571fa14610fee578063ea9a1e3014611033578063ec36c63414611074578063f15ffb2b1461109f578063f1ea1567146110b6578063f851a44014611111578063fd33482d14611168575b600080fd5b3480156102f157600080fd5b506102fa611193565b604051808273ffffffffffffffffffffffffffffffffffffffff1673ffffffffffffffffffffffffffffffffffffffff16815260200191505060405180910390f35b34801561034857600080fd5b5061035161119b565b60405180836103e760200280838360005b8381101561037d578082015181840152602081019050610362565b505050509050018281526020019250505060405180910390f35b3480156103a357600080fd5b506103ac611245565b6040518082815260200191505060405180910390f35b3480156103ce57600080fd5b506103d7611258565b6040518082815260200191505060405180910390f35b3480156103f957600080fd5b50610402611262565b6040518082815260200191505060405180910390f35b34801561042457600080fd5b50610459600480360381019080803573ffffffffffffffffffffffffffffffffffffffff169060200190929190505050611268565b6040518082600560200280838360005b83811015610484578082015181840152602081019050610469565b5050505090500191505060405180910390f35b6104b5600480360381019080803590602001909291905050506112ef565b005b3480156104c357600080fd5b506104cc6114a6565b6040518082815260200191505060405180910390f35b3480156104ee57600080fd5b5061050d600480360381019080803590602001909291905050506114b0565b604051808215151515815260200191505060405180910390f35b34801561053357600080fd5b5061053c611543565b6040518082815260200191505060405180910390f35b34801561055e57600080fd5b5061056761154d565b6040518082815260200191505060405180910390f35b34801561058957600080fd5b50610592611553565b6040518082815260200191505060405180910390f35b3480156105b457600080fd5b506105bd611559565b6040518082815260200191505060405180910390f35b3480156105df57600080fd5b506105fe6004803603810190808035906020019092919050505061155f565b6040518087815260200186815260200185815260200184815260200183151515158152602001828152602001965050505050505060405180910390f35b34801561064757600080fd5b5061065061161c565b6040518082815260200191505060405180910390f35b34801561067257600080fd5b5061067b611622565b6040518082815260200191505060405180910390f35b34801561069d57600080fd5b506106a661162c565b6040518082815260200191505060405180910390f35b3480156106c857600080fd5b506106f16004803603810190808035906020019092919080359060200190929190505050611640565b6040518082815260200191505060405180910390f35b34801561071357600080fd5b5061071c611670565b6040518082815260200191505060405180910390f35b34801561073e57600080fd5b50610747611676565b604051808273ffffffffffffffffffffffffffffffffffffffff1673ffffffffffffffffffffffffffffffffffffffff16815260200191505060405180910390f35b34801561079557600080fd5b5061079e61169f565b6040518082815260200191505060405180910390f35b3480156107c057600080fd5b506107df600480360381019080803590602001909291905050506116a9565b005b3480156107ed57600080fd5b5061080c6004803603810190808035906020019092919050505061170e565b6040518082815260200191505060405180910390f35b34801561082e57600080fd5b5061084d600480360381019080803590602001909291905050506121b8565b005b34801561085b57600080fd5b5061086461221d565b6040518082815260200191505060405180910390f35b34801561088657600080fd5b5061088f612223565b6040518082815260200191505060405180910390f35b3480156108b157600080fd5b506108ba612229565b6040518082815260200191505060405180910390f35b3480156108dc57600080fd5b506108e5612233565b6040518082815260200191505060405180910390f35b34801561090757600080fd5b5061092660048036038101908080359060200190929190505050612239565b6040518082815260200191505060405180910390f35b34801561094857600080fd5b50610951612251565b6040518082815260200191505060405180910390f35b34801561097357600080fd5b506109a8600480360381019080803573ffffffffffffffffffffffffffffffffffffffff16906020019092919050505061225b565b6040518082815260200191505060405180910390f35b3480156109ca57600080fd5b506109f3600480360381019080803590602001909291908035906020019092919050505061228e565b005b348015610a0157600080fd5b50610a20600480360381019080803590602001909291905050506123b1565b6040518082815260200191505060405180910390f35b348015610a4257600080fd5b50610a6b600480360381019080803590602001909291908035906020019092919050505061269c565b005b348015610a7957600080fd5b50610a9860048036038101908080359060200190929190505050612739565b604051808681526020018581526020018481526020018381526020018281526020019550505050505060405180910390f35b610ae86004803603810190808035906020019092919050505061277e565b005b348015610af657600080fd5b50610b1f6004803603810190808035906020019092919080359060200190929190505050612924565b6040518082815260200191505060405180910390f35b348015610b4157600080fd5b50610b6a6004803603810190808035906020019092919080359060200190929190505050612a7f565b6040518082815260200191505060405180910390f35b348015610b8c57600080fd5b50610bab60048036038101908080359060200190929190505050612aaf565b604051808673ffffffffffffffffffffffffffffffffffffffff1673ffffffffffffffffffffffffffffffffffffffff1681526020018581526020018481526020018381526020018281526020019550505050505060405180910390f35b348015610c1557600080fd5b50610c3e6004803603810190808035906020019092919080359060200190929190505050612b14565b6040518082815260200191505060405180910390f35b348015610c6057600080fd5b50610c69612b44565b6040518082815260200191505060405180910390f35b348015610c8b57600080fd5b50610cb46004803603810190808035906020019092919080359060200190929190505050612b4e565b005b348015610cc257600080fd5b50610ce160048036038101908080359060200190929190505050612b80565b6040518087815260200186815260200185815260200184815260200183151515158152602001828152602001965050505050505060405180910390f35b348015610d2a57600080fd5b50610d33612bd8565b6040518082815260200191505060405180910390f35b610d6760048036038101908080359060200190929190505050612be2565b005b610d916004803603810190808035906020019092919080359060200190929190505050612db8565b005b348015610d9f57600080fd5b50610da8612fb9565b6040518082815260200191505060405180910390f35b348015610dca57600080fd5b50610dd3612fbf565b604051808673ffffffffffffffffffffffffffffffffffffffff1673ffffffffffffffffffffffffffffffffffffffff1681526020018581526020018481526020018381526020018281526020019550505050505060405180910390f35b348015610e3d57600080fd5b50610e5c600480360381019080803590602001909291905050506130e2565b005b348015610e6a57600080fd5b50610e73613236565b6040518082815260200191505060405180910390f35b348015610e9557600080fd5b50610eb460048036038101908080359060200190929190505050613240565b005b348015610ec257600080fd5b50610ee1600480360381019080803590602001909291905050506132a5565b604051808273ffffffffffffffffffffffffffffffffffffffff1673ffffffffffffffffffffffffffffffffffffffff16815260200191505060405180910390f35b348015610f2f57600080fd5b50610f62600480360381019080803590602001909291908035906020019092919080359060200190929190505050613365565b6040518082815260200191505060405180910390f35b348015610f8457600080fd5b50610fad60048036038101908080359060200190929190803590602001909291905050506134c9565b6040518082815260200191505060405180910390f35b348015610fcf57600080fd5b50610fd86134f9565b6040518082815260200191505060405180910390f35b348015610ffa57600080fd5b50611019600480360381019080803590602001909291905050506134ff565b604051808215151515815260200191505060405180910390f35b34801561103f57600080fd5b5061105e6004803603810190808035906020019092919050505061364b565b6040518082815260200191505060405180910390f35b34801561108057600080fd5b50611089613663565b6040518082815260200191505060405180910390f35b3480156110ab57600080fd5b506110b4613676565b005b3480156110c257600080fd5b506110cb613a83565b604051808361270f60200280838360005b838110156110f75780820151818401526020810190506110dc565b505050509050018281526020019250505060405180910390f35b34801561111d57600080fd5b50611126613b3b565b604051808273ffffffffffffffffffffffffffffffffffffffff1673ffffffffffffffffffffffffffffffffffffffff16815260200191505060405180910390f35b34801561117457600080fd5b5061117d613b60565b6040518082815260200191505060405180910390f35b600033905090565b6111a3613b6d565b60008060006111b0613b6d565b60006111bb3361225b565b9350601260008581526020019081526020016000209250600090505b82805490508110156112215782818154811015156111f157fe5b906000526020600020015482826103e78110151561120b57fe5b60200201818152505080806001019150506111d7565b81601260008681526020019081526020016000208054905095509550505050509091565b600061125360016052612924565b905090565b6000600154905090565b600b5481565b611270613b92565b600061127a613b92565b6000601360006112898761225b565b81526020019081526020016000209250600090505b60058110156112e45782818154811015156112b557fe5b906000526020600020015482826005811015156112ce57fe5b602002018181525050808060010191505061129e565b819350505050919050565b60006112f9613bb5565b600a54831015151561130a57600080fd5b6000809054906101000a900473ffffffffffffffffffffffffffffffffffffffff1673ffffffffffffffffffffffffffffffffffffffff163373ffffffffffffffffffffffffffffffffffffffff167fddf252ad1be2c89b69c2b068fc378daa952ba7f163c4a11628f55a4df523b3ef856040518082815260200191505060405180910390a36113993361225b565b915060c060405190810160405280600e8054905081526020018381526020016113c0611245565b8152602001600081526020016000151581526020016000815250905060126000838152602001908152602001600020600e805490509080600181540180825580915050906001820390600052602060002001600090919290919091505550600e81908060018154018082558091505090600182039060005260206000209060060201600090919290919091506000820151816000015560208201518160010155604082015181600201556060820151816003015560808201518160040160006101000a81548160ff02191690831515021790555060a08201518160050155505050505050565b6000600a54905090565b60006114ba613bb5565b600e838154811015156114c957fe5b906000526020600020906006020160c06040519081016040529081600082015481526020016001820154815260200160028201548152602001600382015481526020016004820160009054906101000a900460ff161515151581526020016005820154815250509050605181604001511115915050919050565b6000600854905090565b60025481565b60085481565b60015481565b600080600080600080611570613bb5565b600e8881548110151561157f57fe5b906000526020600020906006020160c06040519081016040529081600082015481526020016001820154815260200160028201548152602001600382015481526020016004820160009054906101000a900460ff161515151581526020016005820154815250509050806000015181602001518260400151836060015184608001518560a001519650965096509650965096505091939550919395565b60045481565b6000600b54905090565b600061163b600161012d612924565b905090565b60136020528160005260406000208181548110151561165b57fe5b90600052602060002001600091509150505481565b600a5481565b60008060009054906101000a900473ffffffffffffffffffffffffffffffffffffffff16905090565b6000600354905090565b6000809054906101000a900473ffffffffffffffffffffffffffffffffffffffff1673ffffffffffffffffffffffffffffffffffffffff163373ffffffffffffffffffffffffffffffffffffffff1614151561170457600080fd5b8060098190555050565b6000611718613bee565b611de060405190810160405280600161ffff168152602001600261ffff168152602001600361ffff168152602001600461ffff168152602001600561ffff168152602001600661ffff168152602001600761ffff168152602001600861ffff168152602001600961ffff168152602001600a61ffff168152602001600b61ffff168152602001600c61ffff168152602001600d61ffff168152602001600e61ffff168152602001600f61ffff168152602001601061ffff168152602001601161ffff168152602001601261ffff168152602001601361ffff168152602001601461ffff168152602001601561ffff168152602001601661ffff168152602001601761ffff168152602001601861ffff168152602001601961ffff168152602001601a61ffff168152602001601b61ffff168152602001601c61ffff168152602001601d61ffff168152602001601e61ffff168152602001601f61ffff168152602001602061ffff168152602001602161ffff168152602001602261ffff168152602001602361ffff168152602001602461ffff168152602001602561ffff168152602001602661ffff168152602001602761ffff168152602001602861ffff168152602001602961ffff168152602001602a61ffff168152602001602b61ffff168152602001602c61ffff168152602001602d61ffff168152602001602e61ffff168152602001602f61ffff168152602001603061ffff168152602001603161ffff168152602001603261ffff168152602001603361ffff168152602001603461ffff168152602001603561ffff168152602001603661ffff168152602001603761ffff168152602001603861ffff168152602001603961ffff168152602001603a61ffff168152602001603b61ffff168152602001603c61ffff168152602001603d61ffff168152602001605261ffff168152602001605361ffff168152602001605461ffff168152602001605561ffff168152602001605661ffff168152602001605761ffff168152602001605861ffff168152602001605961ffff168152602001605a61ffff168152602001605b61ffff168152602001605c61ffff168152602001605d61ffff168152602001605e61ffff168152602001605f61ffff168152602001606061ffff168152602001606161ffff168152602001606261ffff168152602001606361ffff168152602001606461ffff168152602001606561ffff168152602001606661ffff168152602001606761ffff168152602001606861ffff168152602001606961ffff168152602001606a61ffff168152602001606b61ffff168152602001606c61ffff168152602001606d61ffff168152602001606e61ffff168152602001606f61ffff168152602001607061ffff168152602001607161ffff168152602001607261ffff168152602001607361ffff168152602001607461ffff168152602001607561ffff168152602001607661ffff168152602001607761ffff168152602001607861ffff168152602001607961ffff168152602001607a61ffff168152602001607b61ffff168152602001607c61ffff168152602001607d61ffff168152602001607e61ffff168152602001607f61ffff168152602001608061ffff168152602001608161ffff168152602001608261ffff168152602001608361ffff168152602001608461ffff168152602001608561ffff168152602001608661ffff168152602001608761ffff168152602001608861ffff168152602001608961ffff168152602001608a61ffff168152602001608b61ffff168152602001608c61ffff168152602001608d61ffff168152602001608e61ffff168152602001608f61ffff168152602001609061ffff168152602001609161ffff168152602001609261ffff168152602001609361ffff168152602001609461ffff168152602001609561ffff168152602001609661ffff168152602001609761ffff168152602001609861ffff168152602001609961ffff168152602001609a61ffff168152602001609b61ffff168152602001609c61ffff168152602001609d61ffff168152602001609e61ffff168152602001609f61ffff16815260200160a061ffff16815260200160a161ffff16815260200160a261ffff16815260200160a361ffff16815260200160a461ffff16815260200160a561ffff16815260200160a661ffff16815260200160a761ffff16815260200160a861ffff16815260200160a961ffff16815260200160aa61ffff16815260200160ac61ffff16815260200160ad61ffff16815260200160ae61ffff16815260200160af61ffff16815260200160b061ffff16815260200160b161ffff16815260200160b561ffff16815260200160b661ffff16815260200160b761ffff16815260200160b861ffff16815260200160c261ffff16815260200160c361ffff16815260200160c461ffff16815260200160c861ffff16815260200160c961ffff16815260200160cd61ffff16815260200160ce61ffff16815260200160cf61ffff16815260200160d161ffff16815260200160d261ffff16815260200160d361ffff16815260200160d461ffff16815260200160d561ffff16815260200160d861ffff16815260200160d961ffff16815260200160db61ffff16815260200160dc61ffff16815260200160e061ffff16815260200160e161ffff16815260200160e461ffff16815260200160e661ffff16815260200160e761ffff16815260200160e861ffff16815260200160e961ffff16815260200160ea61ffff16815260200160eb61ffff16815260200160ec61ffff16815260200160ed61ffff16815260200160ee61ffff16815260200160ef61ffff16815260200160f061ffff16815260200160f161ffff16815260200160f261ffff16815260200160f361ffff16815260200160f461ffff16815260200160f561ffff16815260200160f661ffff16815260200160f761ffff16815260200160f861ffff16815260200160f961ffff16815260200160fa61ffff16815260200160fd61ffff16815260200160fe61ffff16815260200160ff61ffff16815260200161010061ffff16815260200161010161ffff16815260200161010261ffff16815260200161010361ffff16815260200161010461ffff16815260200161010561ffff16815260200161010661ffff16815260200161010761ffff16815260200161010861ffff16815260200161010961ffff16815260200161010a61ffff16815260200161010b61ffff16815260200161010c61ffff16815260200161010d61ffff16815260200161010f61ffff16815260200161011061ffff16815260200161011161ffff16815260200161011261ffff16815260200161011361ffff16815260200161011461ffff16815260200161011661ffff16815260200161011761ffff16815260200161011961ffff16815260200161011a61ffff16815260200161011c61ffff16815260200161011d61ffff16815260200161011e61ffff16815260200161012061ffff16815260200161012161ffff16815260200161012561ffff16815260200161012661ffff16815260200161012861ffff16815260200161012961ffff16815260200161012a61ffff16815260200161012c61ffff1681525090508061219b600060ef86613365565b60ef811015156121a757fe5b602002015161ffff16915050919050565b6000809054906101000a900473ffffffffffffffffffffffffffffffffffffffff1673ffffffffffffffffffffffffffffffffffffffff163373ffffffffffffffffffffffffffffffffffffffff1614151561221357600080fd5b80600b8190555050565b60075481565b60055481565b6000600954905090565b60035481565b600d6020528060005260406000206000915090505481565b6000600254905090565b6000600c60008373ffffffffffffffffffffffffffffffffffffffff168152602001908152602001600020549050919050565b612296613bb5565b6000600e848154811015156122a757fe5b906000526020600020906006020160c06040519081016040529081600082015481526020016001820154815260200160028201548152602001600382015481526020016004820160009054906101000a900460ff1615151515815260200160058201548152505091506123193361225b565b905080826020015114801561233057508160800151155b80156123425750612340846134ff565b155b151561234d57600080fd5b82600e8581548110151561235d57fe5b9060005260206000209060060201600501819055506001600e8581548110151561238357fe5b906000526020600020906006020160040160006101000a81548160ff02191690831515021790555050505050565b60006123bb613c12565b6107a060405190810160405280603e61ffff168152602001603f61ffff168152602001604061ffff168152602001604161ffff168152602001604261ffff168152602001604361ffff168152602001604461ffff168152602001604561ffff168152602001604661ffff168152602001604761ffff168152602001604861ffff168152602001604961ffff168152602001604a61ffff168152602001604b61ffff168152602001604c61ffff168152602001604d61ffff168152602001604e61ffff168152602001604f61ffff168152602001605061ffff168152602001605161ffff16815260200160ab61ffff16815260200160b261ffff16815260200160b361ffff16815260200160b461ffff16815260200160b961ffff16815260200160ba61ffff16815260200160bb61ffff16815260200160bc61ffff16815260200160bd61ffff16815260200160be61ffff16815260200160bf61ffff16815260200160c061ffff16815260200160c161ffff16815260200160c561ffff16815260200160c661ffff16815260200160c761ffff16815260200160ca61ffff16815260200160cb61ffff16815260200160cc61ffff16815260200160d061ffff16815260200160d661ffff16815260200160d761ffff16815260200160da61ffff16815260200160dd61ffff16815260200160de61ffff16815260200160df61ffff16815260200160e261ffff16815260200160e361ffff16815260200160e561ffff16815260200160fb61ffff16815260200160fc61ffff16815260200161010e61ffff16815260200161011561ffff16815260200161011861ffff16815260200161011b61ffff16815260200161011f61ffff16815260200161012261ffff16815260200161012361ffff16815260200161012461ffff16815260200161012761ffff16815260200161012b61ffff1681525090508061267f6000603d86613365565b603d8110151561268b57fe5b602002015161ffff16915050919050565b6126a4613b92565b6000806126b033611268565b9250600091505b6005821015612704578483836005811015156126cf57fe5b602002015114156126f7578383836005811015156126e957fe5b602002018181525050612704565b81806001019250506126b7565b61270d3361225b565b90508260136000838152602001908152602001600020906005612731929190613c36565b505050505050565b60108181548110151561274857fe5b90600052602060002090600502016000915090508060000154908060010154908060020154908060030154908060040154905085565b6000612788613bb5565b6000809054906101000a900473ffffffffffffffffffffffffffffffffffffffff1673ffffffffffffffffffffffffffffffffffffffff163373ffffffffffffffffffffffffffffffffffffffff167fddf252ad1be2c89b69c2b068fc378daa952ba7f163c4a11628f55a4df523b3ef856040518082815260200191505060405180910390a36128173361225b565b915060c060405190810160405280600e80549050815260200183815260200161283e613663565b8152602001600081526020016000151581526020016000815250905060126000838152602001908152602001600020600e805490509080600181540180825580915050906001820390600052602060002001600090919290919091505550600e81908060018154018082558091505090600182039060005260206000209060060201600090919290919091506000820151816000015560208201518160010155604082015181600201556060820151816003015560808201518160040160006101000a81548160ff02191690831515021790555060a08201518160050155505050505050565b600080838303426040516020018082815260200191505060405160208183030381529060405233446040516020018084805190602001908083835b602083101515612984578051825260208201915060208101905060208303925061295f565b6001836020036101000a0380198251168184511680821785525050505050509050018373ffffffffffffffffffffffffffffffffffffffff1673ffffffffffffffffffffffffffffffffffffffff166c0100000000000000000000000002815260140182815260200193505050506040516020818303038152906040526040518082805190602001908083835b602083101515612a365780518252602082019150602081019050602083039250612a11565b6001836020036101000a038019825116818451168082178552505050505050905001915050604051809103902060019004811515612a7057fe5b06905083810191505092915050565b601160205281600052604060002081815481101515612a9a57fe5b90600052602060002001600091509150505481565b600f81815481101515612abe57fe5b90600052602060002090600502016000915090508060000160009054906101000a900473ffffffffffffffffffffffffffffffffffffffff16908060010154908060020154908060030154908060040154905085565b601260205281600052604060002081815481101515612b2f57fe5b90600052602060002001600091509150505481565b6000600654905090565b80600e83815481101515612b5e57fe5b9060005260206000209060060201600301600082825401925050819055505050565b600e81815481101515612b8f57fe5b90600052602060002090600602016000915090508060000154908060010154908060020154908060030154908060040160009054906101000a900460ff16908060050154905086565b6000600554905090565b612bea613c83565b6000600b5483111515612bfc57600080fd5b600f612c073361225b565b815481101515612c1357fe5b906000526020600020906005020160a060405190810160405290816000820160009054906101000a900473ffffffffffffffffffffffffffffffffffffffff1673ffffffffffffffffffffffffffffffffffffffff1673ffffffffffffffffffffffffffffffffffffffff16815260200160018201548152602001600282015481526020016003820154815260200160048201548152505091506000809054906101000a900473ffffffffffffffffffffffffffffffffffffffff1673ffffffffffffffffffffffffffffffffffffffff163373ffffffffffffffffffffffffffffffffffffffff167fddf252ad1be2c89b69c2b068fc378daa952ba7f163c4a11628f55a4df523b3ef856040518082815260200191505060405180910390a3600c60003373ffffffffffffffffffffffffffffffffffffffff1681526020019081526020016000205490506005600f82815481101515612d7057fe5b90600052602060002090600502016002016000828254019250508190555042600f82815481101515612d9e57fe5b906000526020600020906005020160010181905550505050565b612dc0613bb5565b600080600e85815481101515612dd257fe5b906000526020600020906006020160c06040519081016040529081600082015481526020016001820154815260200160028201548152602001600382015481526020016004820160009054906101000a900460ff161515151581526020016005820154815250509250612e443361225b565b915082608001518015612e5b5750838360a0015111155b1515612e6657600080fd5b600f82815481101515612e7557fe5b906000526020600020906005020160000160009054906101000a900473ffffffffffffffffffffffffffffffffffffffff1690508073ffffffffffffffffffffffffffffffffffffffff163373ffffffffffffffffffffffffffffffffffffffff167fddf252ad1be2c89b69c2b068fc378daa952ba7f163c4a11628f55a4df523b3ef866040518082815260200191505060405180910390a3612f17856130e2565b6012600083815260200190815260200160002085908060018154018082558091505090600182039060005260206000200160009091929091909150555081600e86815481101515612f6457fe5b9060005260206000209060060201600101819055506000600e86815481101515612f8a57fe5b906000526020600020906006020160040160006101000a81548160ff0219169083151502179055505050505050565b60065481565b6000806000806000806000612fd2613c83565b339250612fde8361225b565b9150600082141561300b5733600080600080839350829250819150809050975097509750975097506130d8565b600f8281548110151561301a57fe5b906000526020600020906005020160a060405190810160405290816000820160009054906101000a900473ffffffffffffffffffffffffffffffffffffffff1673ffffffffffffffffffffffffffffffffffffffff1673ffffffffffffffffffffffffffffffffffffffff168152602001600182015481526020016002820154815260200160038201548152602001600482015481525050905080600001518160600151826020015183604001518460800151975097509750975097505b5050509091929394565b600080600080600e858154811015156130f757fe5b906000526020600020906006020160010154935061270f9250600091505b601260008581526020019081526020016000208054905082101561317a5784601260008681526020019081526020016000208381548110151561315457fe5b9060005260206000200154141561316d5781925061317a565b8180600101925050613115565b8290505b60016012600086815260200190815260200160002080549050038110156132085760126000858152602001908152602001600020600182018154811015156131c257fe5b906000526020600020015460126000868152602001908152602001600020828154811015156131ed57fe5b9060005260206000200181905550808060010191505061317e565b6012600085815260200190815260200160002080548091906001900361322e9190613cc9565b505050505050565b6000600754905090565b6000809054906101000a900473ffffffffffffffffffffffffffffffffffffffff1673ffffffffffffffffffffffffffffffffffffffff163373ffffffffffffffffffffffffffffffffffffffff1614151561329b57600080fd5b80600a8190555050565b60006132af613c83565b600f838154811015156132be57fe5b906000526020600020906005020160a060405190810160405290816000820160009054906101000a900473ffffffffffffffffffffffffffffffffffffffff1673ffffffffffffffffffffffffffffffffffffffff1673ffffffffffffffffffffffffffffffffffffffff16815260200160018201548152602001600282015481526020016003820154815260200160048201548152505090508060000151915050919050565b60008084840342604051602001808281526020019150506040516020818303038152906040523344866040516020018085805190602001908083835b6020831015156133c657805182526020820191506020810190506020830392506133a1565b6001836020036101000a0380198251168184511680821785525050505050509050018473ffffffffffffffffffffffffffffffffffffffff1673ffffffffffffffffffffffffffffffffffffffff166c010000000000000000000000000281526014018381526020018281526020019450505050506040516020818303038152906040526040518082805190602001908083835b60208310151561347f578051825260208201915060208101905060208303925061345a565b6001836020036101000a0380198251168184511680821785525050505050509050019150506040518091039020600190048115156134b957fe5b0690508481019150509392505050565b6014602052816000526040600020818154811015156134e457fe5b90600052602060002001600091509150505481565b60095481565b6000613509613bb5565b600060606000600e8681548110151561351e57fe5b906000526020600020906006020160c06040519081016040529081600082015481526020016001820154815260200160028201548152602001600382015481526020016004820160009054906101000a900460ff1615151515815260200160058201548152505093506135903361225b565b9250601360008481526020019081526020016000208054806020026020016040519081016040528092919081815260200182805480156135ef57602002820191906000526020600020905b8154815260200190600101908083116135db575b50505050509150600090505b600581101561363d578360000151828281518110151561361757fe5b9060200190602002015114156136305760019450613642565b80806001019150506135fb565b600094505b50505050919050565b600c6020528060005260406000206000915090505481565b6000613671600160db612924565b905090565b600080613681613c83565b600061368b613bb5565b613693613bb5565b33955061369f8661225b565b94506000851415613a7b5760a0604051908101604052808773ffffffffffffffffffffffffffffffffffffffff168152602001428152602001600581526020016000815260200160008152509350600f849080600181540180825580915050906001820390600052602060002090600502016000909192909190915060008201518160000160006101000a81548173ffffffffffffffffffffffffffffffffffffffff021916908373ffffffffffffffffffffffffffffffffffffffff160217905550602082015181600101556040820151816002015560608201518160030155608082015181600401555050506001600f8054905003945084600c60008873ffffffffffffffffffffffffffffffffffffffff16815260200190815260200160002081905550600092505b600483101561392d5760c060405190810160405280600e8054905081526020018681526020016137fa8561170e565b8152602001600081526020016000151581526020016000815250915060126000868152602001908152602001600020600e805490509080600181540180825580915050906001820390600052602060002001600090919290919091505550600e82908060018154018082558091505090600182039060005260206000209060060201600090919290919091506000820151816000015560208201518160010155604082015181600201556060820151816003015560808201518160040160006101000a81548160ff02191690831515021790555060a08201518160050155505050601360008681526020019081526020016000206001600e8054905003908060018154018082558091505090600182039060005260206000200160009091929091909150555082806001019350506137cb565b60c060405190810160405280600e80549050815260200186815260200161395460046123b1565b8152602001600081526020016000151581526020016000815250905060126000868152602001908152602001600020600e805490509080600181540180825580915050906001820390600052602060002001600090919290919091505550600e81908060018154018082558091505090600182039060005260206000209060060201600090919290919091506000820151816000015560208201518160010155604082015181600201556060820151816003015560808201518160040160006101000a81548160ff02191690831515021790555060a08201518160050155505050601360008681526020019081526020016000206001600e805490500390806001815401808255809150509060018203906000526020600020016000909192909190915055505b505050505050565b613a8b613cf5565b6000613a95613cf5565b60008060009150600090505b600e80549050811015613b2e57600e81815481101515613abd57fe5b906000526020600020906006020160040160009054906101000a900460ff1615613b2157600e81815481101515613af057fe5b906000526020600020906006020160000154838380600101945061270f81101515613b1757fe5b6020020181815250505b8080600101915050613aa1565b8282945094505050509091565b6000809054906101000a900473ffffffffffffffffffffffffffffffffffffffff1681565b6000600f80549050905090565b617ce0604051908101604052806103e790602082028038833980820191505090505090565b60a060405190810160405280600590602082028038833980820191505090505090565b60c06040519081016040528060008152602001600081526020016000815260200160008152602001600015158152602001600081525090565b611de06040519081016040528060ef90602082028038833980820191505090505090565b6107a060405190810160405280603d90602082028038833980820191505090505090565b828054828255906000526020600020908101928215613c72579160200282015b82811115613c71578251825591602001919060010190613c56565b5b509050613c7f9190613d1b565b5090565b60a060405190810160405280600073ffffffffffffffffffffffffffffffffffffffff168152602001600081526020016000815260200160008152602001600081525090565b815481835581811115613cf057818360005260206000209182019101613cef9190613d1b565b5b505050565b6204e1e06040519081016040528061270f90602082028038833980820191505090505090565b613d3d91905b80821115613d39576000816000905550600101613d21565b5090565b905600a165627a7a72305820297e55bfe8bafd8c7ae4d215cdf813c2ea3687a1d911fb6361465d9c27bcd4250029",
  "source": "/**\n     jj.length-=18cm\n */\npragma solidity >=0.4.21;\n\ncontract Football {\n\n    address public admin;\n    uint256 public userMap_cnt;\n    uint256 public common_count;\n    uint256 public vip_count;\n    uint256 public rankMap_cnt;\n    uint256 public cardMap_cnt;\n    uint256 public power_count;\n    uint256 public matchMap_cnt;\n    uint256 public saleCardMap_cnt;\n    uint256 public common_card_price = 1;\n    uint256 public vip_card_price = 1;\n    uint256 public power_price=5;\n\n    mapping(uint256=>uint256) public user_map;//addressiduser_idaddress\n    mapping(uint256=>uint256) public contest_map;//idid\n    \n    Card[] public card_list;//id\n    User[] public user_list;//id\n    Contest[] public contest_list;//id\n\n\n    mapping(uint256=>uint256[]) public user_contest_map;//,id\n    mapping(uint256=>uint256[]) public user_card_map;//id\n    mapping(uint256=>uint256[]) public user_team_map;//cardid\n    mapping(uint256=>uint256[]) public onmarket_map;//\n\n    event Transfer(address indexed _from, address indexed _to, uint256 _value);\n    //idid\n    struct Card { \n        uint256  card_id;\n        uint256  owner_id;\n        uint256  player_id;\n        uint256  level;\n        bool  on_market;\n        uint256 card_price;\n    }\n\n    //(truelist,\n    struct User {\n        address user_address;\n        uint256 last_time;\n        uint256 power;\n        uint256 user_card_cnt;\n        uint256 user_contest_cnt;\n    }\n\n    //\n    struct Contest {\n        uint256 my_id;\n        uint256 challenger_id;\n        uint256 my_score;\n        uint256 challenger_score;\n        uint256 team_point;\n    }\n\n    constructor() public{\n        admin = address(0);\n        userMap_cnt = 1;\n        common_count = 1;\n        vip_count = 1;\n        rankMap_cnt = 1;\n        cardMap_cnt = 1;\n        power_count = 1;\n        matchMap_cnt = 1;\n        saleCardMap_cnt = 1;\n        common_card_price = 3;\n        vip_card_price = 1;\n        power_price = 1;\n        User memory user = User(address(0),now,0,0,0);\n        user_list.push(user);\n        Card memory card = Card(0,0,0,0,false,0);\n        card_list.push(card);\n            \n    }\n     \n    //\n    function random(uint256 begin,uint256 end) public view returns(uint256) {\n        uint256 number = uint256(keccak256(abi.encodePacked(abi.encodePacked(now),msg.sender,block.difficulty))) % (end-begin);\n        return number+begin;\n    }\n\n    function salt_random(uint256 begin,uint256 end,uint256 salt) public view returns(uint256) {\n        uint256 number = uint256(keccak256(abi.encodePacked(abi.encodePacked(now),msg.sender,block.difficulty,salt))) % (end-begin);\n        return number+begin;\n    }\n\n    function get_matchMap_cnt() public view returns(uint256) {\n        return matchMap_cnt;\n    }\n\n    function get_address() public view returns(address) {\n        return msg.sender;\n    }\n\n    function get_userMap_cnt() public view returns(uint256) {\n        return userMap_cnt;\n    }\n\n    function get_cardMap_cnt() public view returns(uint256) {\n        return cardMap_cnt;\n    }\n    \n    function get_vip_count() public view returns(uint256) {\n        return vip_count;\n    }\n\n    function get_common_count() public view returns(uint256) {\n        return common_count;\n    }\n\n    function get_power_count() public view returns(uint256) {\n        return power_count;\n    }\n\n    function get_saleCardMap_cnt() public view returns(uint256) {\n        return saleCardMap_cnt;\n    }\n    \n    function random_all_card() public view returns(uint256) {\n        return uint256(random(1,301));\n    }\n\n    function random_goalkeeper_card(uint256 salt) public view returns(uint256) {\n        uint16[61] memory goalKeeperList = [62 , 63 , 64 , 65 , 66 , 67 , 68 , 69 , 70 , 71 , 72 , 73 , 74 , 75 , 76 , 77 , 78 , 79 , 80 , 81 , 171 , 178 , 179 , 180 , 185 , 186 , 187 , 188 , 189 , 190 , 191 , 192 , 193 , 197 , 198 , 199 , 202 , 203 , 204 , 208 , 214 , 215 , 218 , 221 , 222 , 223 , 226 , 227 , 229 , 251 , 252 , 270 , 277 , 280 , 283 , 287 , 290 , 291 , 292 , 295 , 299];\n        return goalKeeperList[salt_random(0, goalKeeperList.length,salt)];\n    }\n\n    function random_not_goalkeeper_card(uint256 salt) public view returns(uint256) {\n        uint16[239] memory notGoalKeeperList =[1 , 2 , 3 , 4 , 5 , 6 , 7 , 8 , 9 , 10 , 11 , 12 , 13 , 14 , 15 , 16 , 17 , 18 , 19 , 20 , 21 , 22 , 23 , 24 , 25 , 26 , 27 , 28 , 29 , 30 , 31 , 32 , 33 , 34 , 35 , 36 , 37 , 38 , 39 , 40 , 41 , 42 , 43 , 44 , 45 , 46 , 47 , 48 , 49 , 50 , 51 , 52 , 53 , 54 , 55 , 56 , 57 , 58 , 59 , 60 , 61 , 82 , 83 , 84 , 85 , 86 , 87 , 88 , 89 , 90 , 91 , 92 , 93 , 94 , 95 , 96 , 97 , 98 , 99 , 100 , 101 , 102 , 103 , 104 , 105 , 106 , 107 , 108 , 109 , 110 , 111 , 112 , 113 , 114 , 115 , 116 , 117 , 118 , 119 , 120 , 121 , 122 , 123 , 124 , 125 , 126 , 127 , 128 , 129 , 130 , 131 , 132 , 133 , 134 , 135 , 136 , 137 , 138 , 139 , 140 , 141 , 142 , 143 , 144 , 145 , 146 , 147 , 148 , 149 , 150 , 151 , 152 , 153 , 154 , 155 , 156 , 157 , 158 , 159 , 160 , 161 , 162 , 163 , 164 , 165 , 166 , 167 , 168 , 169 , 170 , 172 , 173 , 174 , 175 , 176 , 177 , 181 , 182 , 183 , 184 , 194 , 195 , 196 , 200 , 201 , 205 , 206 , 207 , 209 , 210 , 211 , 212 , 213 , 216 , 217 , 219 , 220 , 224 , 225 , 228 , 230 , 231 , 232 , 233 , 234 , 235 , 236 , 237 , 238 , 239 , 240 , 241 , 242 , 243 , 244 , 245 , 246 , 247 , 248 , 249 , 250 , 253 , 254 , 255 , 256 , 257 , 258 , 259 , 260 , 261 , 262 , 263 , 264 , 265 , 266 , 267 , 268 , 269 , 271 , 272 , 273 , 274 , 275 , 276 , 278 , 279 , 281 , 282 , 284 , 285 , 286 , 288 , 289 , 293 , 294 , 296 , 297 , 298 , 300];\n        return notGoalKeeperList[salt_random(0, notGoalKeeperList.length,salt)];\n    }\n\n    function random_vip_card() public view returns(uint256) {\n        return uint256(random(1,82));\n    }\n    function random_common_card() public view returns(uint256) {\n        return uint256(random(1,219));\n    }\n\n    function get_admin() public view returns(address) {\n        return admin;\n    }\n\n    function get_common_card_price() public view returns(uint256) {\n        return common_card_price;\n    }\n    \n    function get_vip_card_price() public view returns(uint256) {\n        return vip_card_price;\n    }\n\n    function get_power_price() public view returns(uint256) {\n        return power_price;\n    }\n\n    function set_common_card_price(uint256 price) public {\n        require(msg.sender == admin);\n        common_card_price = price;\n    }\n\n    function set_vip_card_price(uint256 price) public {\n        require(msg.sender == admin);\n        vip_card_price = price;\n    }\n\n    function set_power_price(uint256 price) public {\n        require(msg.sender == admin);\n        power_price = price;\n    }\n\n    // \n    function user_register() public {\n        address user_from = msg.sender;\n        uint256 user_id = get_user_id(user_from);\n        if (user_id == 0){\n            User memory user = User(user_from,now,5,0,0);\n            user_list.push(user);\n            user_id = user_list.length-1;\n            user_map[uint256(user_from)] = user_id;\n            for(uint256 i=0;i<4;i++) {\n                Card memory card = Card(card_list.length,user_id,random_not_goalkeeper_card(i),0,false,0);\n                user_card_map[user_id].push(card_list.length);\n                card_list.push(card);\n                user_team_map[user_id].push(card_list.length-1);\n            }\n            Card memory card2 = Card(card_list.length,user_id,random_goalkeeper_card(4),0,false,0);\n            user_card_map[user_id].push(card_list.length);\n            card_list.push(card2);\n            user_team_map[user_id].push(card_list.length-1);\n        }\n    }\n    \n    //\n    function user_login() public view returns(address,uint256,uint256,uint256,uint256){\n        address user_from = msg.sender;\n        uint256 user_id = get_user_id(user_from);\n        if (user_id == 0){\n            return (msg.sender,0,0,0,0);\n        }\n        User memory user = user_list[user_id];\n        return (user.user_address,user.user_card_cnt,user.last_time,user.power,user.user_contest_cnt);\n      }\n    \n    // user_idaddress\n    function get_user_address(uint256 user_id) public view returns(address) {\n        User memory user = user_list[user_id];\n        return user.user_address;\n      \n    }\n    function get_user_id(address user_address) public view returns(uint256) {\n        return user_map[uint256(user_address)];\n    }\n\n    function get_user_count() public view returns(uint256) {\n        return user_list.length;\n    }\n    \n    //card_id\n    function get_user_team(address user_address) public view returns(uint256[5] memory) {\n        uint256[] storage temp_team =  user_team_map[get_user_id(user_address)];\n        uint256[5] memory user_team;\n        for(uint256 i=0;i<5;i++){\n            user_team[i] = temp_team[i];\n        }\n        return user_team;\n    }\n     \n    //\n    function get_user_all_card() public view returns(uint256[999] memory ,uint256){\n        uint256 user_id = get_user_id(msg.sender);\n        uint256[] storage temp_card_list = user_card_map[user_id];\n        uint256[999] memory user_all_card;\n        for(uint256 i=0;i<temp_card_list.length;i++) {\n            user_all_card[i] = temp_card_list[i];\n        }\n        return (user_all_card,user_card_map[user_id].length);\n    }\n\n    //\n    function buy_power(uint256 value) public payable{\n        require(value > power_price);\n        User memory user = user_list[get_user_id(msg.sender)];\n        //require(now-user.last_time>=86400);\n        emit Transfer(msg.sender, admin, value);\n        uint256 user_id = user_map[uint256(msg.sender)];\n        user_list[user_id].power+=5;\n        user_list[user_id].last_time = now;\n    }\n    \n    //\n    function get_card_info(uint256 card_id) public view returns(uint256,uint256,uint256,uint256,bool,uint256) {\n        Card memory card = card_list[card_id];\n        return (card.card_id,card.owner_id,card.player_id,card.level,card.on_market,card.card_price);\n    }\n\n    //vip\n    function judge_card_vip(uint256 card_id) public view returns(bool) {\n        Card memory card = card_list[card_id];\n        return card.player_id<=81; \n    }\n\n    //\n    function buy_common_card(uint256 value) public payable{\n        // require(value >= common_card_price);\n        emit Transfer(msg.sender, admin, value);\n        uint256 user_id = get_user_id(msg.sender);\n        Card memory card = Card(card_list.length,user_id,random_common_card(),0,false,0);\n        user_card_map[user_id].push(card_list.length);\n        card_list.push(card);\n    }\n    \n    //vip\n    function buy_vip_card(uint256 value) public payable{\n        require(value >= vip_card_price);\n        emit Transfer(msg.sender, admin, value);\n        uint256 user_id = get_user_id(msg.sender);\n        Card memory card = Card(card_list.length,user_id,random_vip_card(),0,false,0);\n        user_card_map[user_id].push(card_list.length);\n        card_list.push(card);\n    }\n\n    //\n    function change_team(uint256 old_card_id, uint256 new_card_id) public {\n        uint256[5] memory user_team = get_user_team(msg.sender);\n        for(uint256 i=0;i<5;i++){\n            if(user_team[i] == old_card_id){\n                user_team[i] = new_card_id;\n                break;\n            }\n        }\n        uint256 user_id = get_user_id(msg.sender);\n        user_team_map[user_id] = user_team;\n    }\n    //card\n    function is_card_in_team(uint256 card_id) public view returns(bool) {\n        Card memory card = card_list[card_id];\n        uint256 user_id = get_user_id(msg.sender);\n        uint256[] memory user_team = user_team_map[user_id];\n        for(uint256 i=0;i<5;i++){\n            if(user_team[i] == card.card_id){\n                return true;\n            }\n        }\n        return false;\n    }\n\n    //\n    function sale_card(uint256 card_id, uint256 card_price) public {\n        Card memory card = card_list[card_id];\n        uint256 user_id = get_user_id(msg.sender);\n        require(card.owner_id == user_id && !card.on_market && !is_card_in_team(card_id));\n        card_list[card_id].card_price = card_price;\n        card_list[card_id].on_market = true;\n    }\n    \n    // card\n    function get_all_card_on_market() view public returns(uint256[9999] memory ,uint256 ) {\n        uint256[9999] memory card_on_market;\n        uint256 card_count = 0;\n        for(uint256 i=0;i<card_list.length;i++) {\n            if(card_list[i].on_market) {\n                card_on_market[card_count++] = card_list[i].card_id;\n            }\n        }\n        return (card_on_market,card_count);\n    }\n    //\n    function remove_card_from_user_card_map(uint256 card_id) public {\n        uint256 user_id = card_list[card_id].owner_id;\n        uint256 begin = 9999;\n        for(uint i=0;i<user_card_map[user_id].length;i++) {\n            if(user_card_map[user_id][i] == card_id) {\n                begin = i;\n                break;\n            }\n        }\n        for(uint j=begin;j<user_card_map[user_id].length-1;j++) {\n            user_card_map[user_id][j] = user_card_map[user_id][j+1];\n        }\n        user_card_map[user_id].length--;\n    }\n    //\n    function buy_card(uint256 card_id, uint256 value) public payable{\n        Card memory card = card_list[card_id];\n        uint256 user_id = get_user_id(msg.sender);\n        require(card.on_market && card.card_price<=value);\n        address card_owner_address = user_list[user_id].user_address;\n        emit Transfer(msg.sender, card_owner_address, value);//\n        remove_card_from_user_card_map(card_id);//owner cardlist\n        user_card_map[user_id].push(card_id);//cardlist\n        card_list[card_id].owner_id = user_id;//\n        card_list[card_id].on_market = false;//\n    }\n\n    //add levle\n    function add_level(uint256 card_id, uint256 add) public {\n        card_list[card_id].level+=add;\n    }\n}\n",
  "sourcePath": "/home/liyuankun/tron/TronFootball/football-test/contracts/Football.sol",
  "compiler": {
    "name": "solc",
    "version": "0.4.24-develop.2018.8.28+commit.3ba0cdec.mod.Emscripten.clang"
  },
  "schemaVersion": "2.0.1",
  "updatedAt": "2019-01-02T11:15:45.460Z"
}