{
  "contractName": "Football",
  "abi": [
    {
      "constant": true,
      "inputs": [],
      "name": "power_price",
      "outputs": [
        {
          "name": "",
          "type": "uint256"
        }
      ],
      "payable": false,
      "stateMutability": "view",
      "type": "function"
    },
    {
      "constant": true,
      "inputs": [],
      "name": "common_count",
      "outputs": [
        {
          "name": "",
          "type": "uint256"
        }
      ],
      "payable": false,
      "stateMutability": "view",
      "type": "function"
    },
    {
      "constant": true,
      "inputs": [],
      "name": "saleCardMap_cnt",
      "outputs": [
        {
          "name": "",
          "type": "uint256"
        }
      ],
      "payable": false,
      "stateMutability": "view",
      "type": "function"
    },
    {
      "constant": true,
      "inputs": [],
      "name": "userMap_cnt",
      "outputs": [
        {
          "name": "",
          "type": "uint256"
        }
      ],
      "payable": false,
      "stateMutability": "view",
      "type": "function"
    },
    {
      "constant": true,
      "inputs": [],
      "name": "rankMap_cnt",
      "outputs": [
        {
          "name": "",
          "type": "uint256"
        }
      ],
      "payable": false,
      "stateMutability": "view",
      "type": "function"
    },
    {
      "constant": true,
      "inputs": [
        {
          "name": "",
          "type": "uint256"
        },
        {
          "name": "",
          "type": "uint256"
        }
      ],
      "name": "user_team_map",
      "outputs": [
        {
          "name": "",
          "type": "uint256"
        }
      ],
      "payable": false,
      "stateMutability": "view",
      "type": "function"
    },
    {
      "constant": true,
      "inputs": [],
      "name": "vip_card_price",
      "outputs": [
        {
          "name": "",
          "type": "uint256"
        }
      ],
      "payable": false,
      "stateMutability": "view",
      "type": "function"
    },
    {
      "constant": true,
      "inputs": [],
      "name": "matchMap_cnt",
      "outputs": [
        {
          "name": "",
          "type": "uint256"
        }
      ],
      "payable": false,
      "stateMutability": "view",
      "type": "function"
    },
    {
      "constant": true,
      "inputs": [],
      "name": "cardMap_cnt",
      "outputs": [
        {
          "name": "",
          "type": "uint256"
        }
      ],
      "payable": false,
      "stateMutability": "view",
      "type": "function"
    },
    {
      "constant": true,
      "inputs": [],
      "name": "vip_count",
      "outputs": [
        {
          "name": "",
          "type": "uint256"
        }
      ],
      "payable": false,
      "stateMutability": "view",
      "type": "function"
    },
    {
      "constant": true,
      "inputs": [
        {
          "name": "",
          "type": "uint256"
        }
      ],
      "name": "contest_map",
      "outputs": [
        {
          "name": "",
          "type": "uint256"
        }
      ],
      "payable": false,
      "stateMutability": "view",
      "type": "function"
    },
    {
      "constant": true,
      "inputs": [
        {
          "name": "",
          "type": "uint256"
        }
      ],
      "name": "contest_list",
      "outputs": [
        {
          "name": "my_id",
          "type": "uint256"
        },
        {
          "name": "challenger_id",
          "type": "uint256"
        },
        {
          "name": "my_score",
          "type": "uint256"
        },
        {
          "name": "challenger_score",
          "type": "uint256"
        },
        {
          "name": "team_point",
          "type": "uint256"
        }
      ],
      "payable": false,
      "stateMutability": "view",
      "type": "function"
    },
    {
      "constant": true,
      "inputs": [
        {
          "name": "",
          "type": "uint256"
        },
        {
          "name": "",
          "type": "uint256"
        }
      ],
      "name": "user_contest_map",
      "outputs": [
        {
          "name": "",
          "type": "uint256"
        }
      ],
      "payable": false,
      "stateMutability": "view",
      "type": "function"
    },
    {
      "constant": true,
      "inputs": [
        {
          "name": "",
          "type": "uint256"
        }
      ],
      "name": "user_list",
      "outputs": [
        {
          "name": "user_address",
          "type": "address"
        },
        {
          "name": "last_time",
          "type": "uint256"
        },
        {
          "name": "power",
          "type": "uint256"
        },
        {
          "name": "user_card_cnt",
          "type": "uint256"
        },
        {
          "name": "user_contest_cnt",
          "type": "uint256"
        }
      ],
      "payable": false,
      "stateMutability": "view",
      "type": "function"
    },
    {
      "constant": true,
      "inputs": [
        {
          "name": "",
          "type": "uint256"
        },
        {
          "name": "",
          "type": "uint256"
        }
      ],
      "name": "user_card_map",
      "outputs": [
        {
          "name": "",
          "type": "uint256"
        }
      ],
      "payable": false,
      "stateMutability": "view",
      "type": "function"
    },
    {
      "constant": true,
      "inputs": [
        {
          "name": "",
          "type": "uint256"
        }
      ],
      "name": "card_list",
      "outputs": [
        {
          "name": "card_id",
          "type": "uint256"
        },
        {
          "name": "owner_id",
          "type": "uint256"
        },
        {
          "name": "player_id",
          "type": "uint256"
        },
        {
          "name": "level",
          "type": "uint256"
        },
        {
          "name": "on_market",
          "type": "bool"
        },
        {
          "name": "card_price",
          "type": "uint256"
        }
      ],
      "payable": false,
      "stateMutability": "view",
      "type": "function"
    },
    {
      "constant": true,
      "inputs": [],
      "name": "power_count",
      "outputs": [
        {
          "name": "",
          "type": "uint256"
        }
      ],
      "payable": false,
      "stateMutability": "view",
      "type": "function"
    },
    {
      "constant": true,
      "inputs": [
        {
          "name": "",
          "type": "uint256"
        },
        {
          "name": "",
          "type": "uint256"
        }
      ],
      "name": "onmarket_map",
      "outputs": [
        {
          "name": "",
          "type": "uint256"
        }
      ],
      "payable": false,
      "stateMutability": "view",
      "type": "function"
    },
    {
      "constant": true,
      "inputs": [],
      "name": "common_card_price",
      "outputs": [
        {
          "name": "",
          "type": "uint256"
        }
      ],
      "payable": false,
      "stateMutability": "view",
      "type": "function"
    },
    {
      "constant": true,
      "inputs": [
        {
          "name": "",
          "type": "uint256"
        }
      ],
      "name": "user_map",
      "outputs": [
        {
          "name": "",
          "type": "uint256"
        }
      ],
      "payable": false,
      "stateMutability": "view",
      "type": "function"
    },
    {
      "constant": true,
      "inputs": [],
      "name": "admin",
      "outputs": [
        {
          "name": "",
          "type": "address"
        }
      ],
      "payable": false,
      "stateMutability": "view",
      "type": "function"
    },
    {
      "inputs": [],
      "payable": false,
      "stateMutability": "nonpayable",
      "type": "constructor"
    },
    {
      "anonymous": false,
      "inputs": [
        {
          "indexed": true,
          "name": "_from",
          "type": "address"
        },
        {
          "indexed": true,
          "name": "_to",
          "type": "address"
        },
        {
          "indexed": false,
          "name": "_value",
          "type": "uint256"
        }
      ],
      "name": "Transfer",
      "type": "event"
    },
    {
      "constant": true,
      "inputs": [
        {
          "name": "begin",
          "type": "uint256"
        },
        {
          "name": "end",
          "type": "uint256"
        }
      ],
      "name": "random",
      "outputs": [
        {
          "name": "",
          "type": "uint256"
        }
      ],
      "payable": false,
      "stateMutability": "view",
      "type": "function"
    },
    {
      "constant": true,
      "inputs": [
        {
          "name": "begin",
          "type": "uint256"
        },
        {
          "name": "end",
          "type": "uint256"
        },
        {
          "name": "salt",
          "type": "uint256"
        }
      ],
      "name": "salt_random",
      "outputs": [
        {
          "name": "",
          "type": "uint256"
        }
      ],
      "payable": false,
      "stateMutability": "view",
      "type": "function"
    },
    {
      "constant": true,
      "inputs": [],
      "name": "get_matchMap_cnt",
      "outputs": [
        {
          "name": "",
          "type": "uint256"
        }
      ],
      "payable": false,
      "stateMutability": "view",
      "type": "function"
    },
    {
      "constant": true,
      "inputs": [],
      "name": "get_address",
      "outputs": [
        {
          "name": "",
          "type": "address"
        }
      ],
      "payable": false,
      "stateMutability": "view",
      "type": "function"
    },
    {
      "constant": true,
      "inputs": [],
      "name": "get_userMap_cnt",
      "outputs": [
        {
          "name": "",
          "type": "uint256"
        }
      ],
      "payable": false,
      "stateMutability": "view",
      "type": "function"
    },
    {
      "constant": true,
      "inputs": [],
      "name": "get_cardMap_cnt",
      "outputs": [
        {
          "name": "",
          "type": "uint256"
        }
      ],
      "payable": false,
      "stateMutability": "view",
      "type": "function"
    },
    {
      "constant": true,
      "inputs": [],
      "name": "get_vip_count",
      "outputs": [
        {
          "name": "",
          "type": "uint256"
        }
      ],
      "payable": false,
      "stateMutability": "view",
      "type": "function"
    },
    {
      "constant": true,
      "inputs": [],
      "name": "get_common_count",
      "outputs": [
        {
          "name": "",
          "type": "uint256"
        }
      ],
      "payable": false,
      "stateMutability": "view",
      "type": "function"
    },
    {
      "constant": true,
      "inputs": [],
      "name": "get_power_count",
      "outputs": [
        {
          "name": "",
          "type": "uint256"
        }
      ],
      "payable": false,
      "stateMutability": "view",
      "type": "function"
    },
    {
      "constant": true,
      "inputs": [],
      "name": "get_saleCardMap_cnt",
      "outputs": [
        {
          "name": "",
          "type": "uint256"
        }
      ],
      "payable": false,
      "stateMutability": "view",
      "type": "function"
    },
    {
      "constant": true,
      "inputs": [],
      "name": "random_all_card",
      "outputs": [
        {
          "name": "",
          "type": "uint256"
        }
      ],
      "payable": false,
      "stateMutability": "view",
      "type": "function"
    },
    {
      "constant": true,
      "inputs": [
        {
          "name": "salt",
          "type": "uint256"
        }
      ],
      "name": "random_goalkeeper_card",
      "outputs": [
        {
          "name": "",
          "type": "uint256"
        }
      ],
      "payable": false,
      "stateMutability": "view",
      "type": "function"
    },
    {
      "constant": true,
      "inputs": [
        {
          "name": "salt",
          "type": "uint256"
        }
      ],
      "name": "random_not_goalkeeper_card",
      "outputs": [
        {
          "name": "",
          "type": "uint256"
        }
      ],
      "payable": false,
      "stateMutability": "view",
      "type": "function"
    },
    {
      "constant": true,
      "inputs": [],
      "name": "random_vip_card",
      "outputs": [
        {
          "name": "",
          "type": "uint256"
        }
      ],
      "payable": false,
      "stateMutability": "view",
      "type": "function"
    },
    {
      "constant": true,
      "inputs": [],
      "name": "random_common_card",
      "outputs": [
        {
          "name": "",
          "type": "uint256"
        }
      ],
      "payable": false,
      "stateMutability": "view",
      "type": "function"
    },
    {
      "constant": true,
      "inputs": [],
      "name": "get_admin",
      "outputs": [
        {
          "name": "",
          "type": "address"
        }
      ],
      "payable": false,
      "stateMutability": "view",
      "type": "function"
    },
    {
      "constant": true,
      "inputs": [],
      "name": "get_common_card_price",
      "outputs": [
        {
          "name": "",
          "type": "uint256"
        }
      ],
      "payable": false,
      "stateMutability": "view",
      "type": "function"
    },
    {
      "constant": true,
      "inputs": [],
      "name": "get_vip_card_price",
      "outputs": [
        {
          "name": "",
          "type": "uint256"
        }
      ],
      "payable": false,
      "stateMutability": "view",
      "type": "function"
    },
    {
      "constant": true,
      "inputs": [],
      "name": "get_power_price",
      "outputs": [
        {
          "name": "",
          "type": "uint256"
        }
      ],
      "payable": false,
      "stateMutability": "view",
      "type": "function"
    },
    {
      "constant": false,
      "inputs": [
        {
          "name": "price",
          "type": "uint256"
        }
      ],
      "name": "set_common_card_price",
      "outputs": [],
      "payable": false,
      "stateMutability": "nonpayable",
      "type": "function"
    },
    {
      "constant": false,
      "inputs": [
        {
          "name": "price",
          "type": "uint256"
        }
      ],
      "name": "set_vip_card_price",
      "outputs": [],
      "payable": false,
      "stateMutability": "nonpayable",
      "type": "function"
    },
    {
      "constant": false,
      "inputs": [
        {
          "name": "price",
          "type": "uint256"
        }
      ],
      "name": "set_power_price",
      "outputs": [],
      "payable": false,
      "stateMutability": "nonpayable",
      "type": "function"
    },
    {
      "constant": false,
      "inputs": [],
      "name": "user_register",
      "outputs": [],
      "payable": false,
      "stateMutability": "nonpayable",
      "type": "function"
    },
    {
      "constant": true,
      "inputs": [],
      "name": "user_login",
      "outputs": [
        {
          "name": "",
          "type": "address"
        },
        {
          "name": "",
          "type": "uint256"
        },
        {
          "name": "",
          "type": "uint256"
        },
        {
          "name": "",
          "type": "uint256"
        },
        {
          "name": "",
          "type": "uint256"
        }
      ],
      "payable": false,
      "stateMutability": "view",
      "type": "function"
    },
    {
      "constant": true,
      "inputs": [
        {
          "name": "user_id",
          "type": "uint256"
        }
      ],
      "name": "get_user_address",
      "outputs": [
        {
          "name": "",
          "type": "address"
        }
      ],
      "payable": false,
      "stateMutability": "view",
      "type": "function"
    },
    {
      "constant": true,
      "inputs": [
        {
          "name": "user_address",
          "type": "address"
        }
      ],
      "name": "get_user_id",
      "outputs": [
        {
          "name": "",
          "type": "uint256"
        }
      ],
      "payable": false,
      "stateMutability": "view",
      "type": "function"
    },
    {
      "constant": true,
      "inputs": [],
      "name": "get_user_count",
      "outputs": [
        {
          "name": "",
          "type": "uint256"
        }
      ],
      "payable": false,
      "stateMutability": "view",
      "type": "function"
    },
    {
      "constant": true,
      "inputs": [
        {
          "name": "user_address",
          "type": "address"
        }
      ],
      "name": "get_user_team",
      "outputs": [
        {
          "name": "",
          "type": "uint256[5]"
        }
      ],
      "payable": false,
      "stateMutability": "view",
      "type": "function"
    },
    {
      "constant": true,
      "inputs": [],
      "name": "get_user_all_card",
      "outputs": [
        {
          "name": "",
          "type": "uint256[999]"
        },
        {
          "name": "",
          "type": "uint256"
        }
      ],
      "payable": false,
      "stateMutability": "view",
      "type": "function"
    },
    {
      "constant": false,
      "inputs": [
        {
          "name": "value",
          "type": "uint256"
        }
      ],
      "name": "buy_power",
      "outputs": [],
      "payable": true,
      "stateMutability": "payable",
      "type": "function"
    },
    {
      "constant": false,
      "inputs": [],
      "name": "get_power_power",
      "outputs": [],
      "payable": false,
      "stateMutability": "nonpayable",
      "type": "function"
    },
    {
      "constant": true,
      "inputs": [],
      "name": "get_all_users",
      "outputs": [
        {
          "name": "",
          "type": "address[9999]"
        },
        {
          "name": "",
          "type": "uint256"
        }
      ],
      "payable": false,
      "stateMutability": "view",
      "type": "function"
    },
    {
      "constant": true,
      "inputs": [
        {
          "name": "card_id",
          "type": "uint256"
        }
      ],
      "name": "get_card_info",
      "outputs": [
        {
          "name": "",
          "type": "uint256"
        },
        {
          "name": "",
          "type": "uint256"
        },
        {
          "name": "",
          "type": "uint256"
        },
        {
          "name": "",
          "type": "uint256"
        },
        {
          "name": "",
          "type": "bool"
        },
        {
          "name": "",
          "type": "uint256"
        }
      ],
      "payable": false,
      "stateMutability": "view",
      "type": "function"
    },
    {
      "constant": true,
      "inputs": [
        {
          "name": "card_id",
          "type": "uint256"
        }
      ],
      "name": "judge_card_vip",
      "outputs": [
        {
          "name": "",
          "type": "bool"
        }
      ],
      "payable": false,
      "stateMutability": "view",
      "type": "function"
    },
    {
      "constant": false,
      "inputs": [
        {
          "name": "value",
          "type": "uint256"
        }
      ],
      "name": "buy_common_card",
      "outputs": [],
      "payable": true,
      "stateMutability": "payable",
      "type": "function"
    },
    {
      "constant": false,
      "inputs": [
        {
          "name": "value",
          "type": "uint256"
        }
      ],
      "name": "buy_vip_card",
      "outputs": [],
      "payable": true,
      "stateMutability": "payable",
      "type": "function"
    },
    {
      "constant": false,
      "inputs": [
        {
          "name": "old_card_id",
          "type": "uint256"
        },
        {
          "name": "new_card_id",
          "type": "uint256"
        }
      ],
      "name": "change_team",
      "outputs": [],
      "payable": false,
      "stateMutability": "nonpayable",
      "type": "function"
    },
    {
      "constant": false,
      "inputs": [
        {
          "name": "new_team",
          "type": "uint256[5]"
        }
      ],
      "name": "set_team",
      "outputs": [],
      "payable": false,
      "stateMutability": "nonpayable",
      "type": "function"
    },
    {
      "constant": true,
      "inputs": [
        {
          "name": "card_id",
          "type": "uint256"
        }
      ],
      "name": "is_card_in_team",
      "outputs": [
        {
          "name": "",
          "type": "bool"
        }
      ],
      "payable": false,
      "stateMutability": "view",
      "type": "function"
    },
    {
      "constant": false,
      "inputs": [
        {
          "name": "card_id",
          "type": "uint256"
        },
        {
          "name": "card_price",
          "type": "uint256"
        }
      ],
      "name": "sale_card",
      "outputs": [],
      "payable": false,
      "stateMutability": "nonpayable",
      "type": "function"
    },
    {
      "constant": true,
      "inputs": [],
      "name": "get_all_card_on_market",
      "outputs": [
        {
          "name": "",
          "type": "uint256[9999]"
        },
        {
          "name": "",
          "type": "uint256"
        }
      ],
      "payable": false,
      "stateMutability": "view",
      "type": "function"
    },
    {
      "constant": false,
      "inputs": [
        {
          "name": "card_id",
          "type": "uint256"
        }
      ],
      "name": "remove_card_from_user_card_map",
      "outputs": [],
      "payable": false,
      "stateMutability": "nonpayable",
      "type": "function"
    },
    {
      "constant": false,
      "inputs": [
        {
          "name": "card_id",
          "type": "uint256"
        },
        {
          "name": "value",
          "type": "uint256"
        }
      ],
      "name": "buy_card",
      "outputs": [],
      "payable": true,
      "stateMutability": "payable",
      "type": "function"
    },
    {
      "constant": false,
      "inputs": [
        {
          "name": "card_id",
          "type": "uint256"
        },
        {
          "name": "add",
          "type": "uint256"
        }
      ],
      "name": "add_level",
      "outputs": [],
      "payable": false,
      "stateMutability": "nonpayable",
      "type": "function"
    }
  ],
  "bytecode": "0x608060405260016009556001600a556005600b553480156200002057600080fd5b50d380156200002e57600080fd5b50d280156200003c57600080fd5b506200004762000290565b62000051620002d6565b60008060006101000a81548173ffffffffffffffffffffffffffffffffffffffff021916908373ffffffffffffffffffffffffffffffffffffffff16021790555060018081905550600160028190555060016003819055506001600481905550600160058190555060016006819055506001600781905550600160088190555060036009819055506001600a819055506001600b8190555060a060405190810160405280600073ffffffffffffffffffffffffffffffffffffffff168152602001428152602001600081526020016000815260200160008152509150600f829080600181540180825580915050906001820390600052602060002090600502016000909192909190915060008201518160000160006101000a81548173ffffffffffffffffffffffffffffffffffffffff021916908373ffffffffffffffffffffffffffffffffffffffff1602179055506020820151816001015560408201518160020155606082015181600301556080820151816004015550505060c0604051908101604052806000815260200160008152602001600081526020016000815260200160001515815260200160008152509050600e81908060018154018082558091505090600182039060005260206000209060060201600090919290919091506000820151816000015560208201518160010155604082015181600201556060820151816003015560808201518160040160006101000a81548160ff02191690831515021790555060a0820151816005015550505050506200030f565b60a060405190810160405280600073ffffffffffffffffffffffffffffffffffffffff168152602001600081526020016000815260200160008152602001600081525090565b60c06040519081016040528060008152602001600081526020016000815260200160008152602001600015158152602001600081525090565b614706806200031f6000396000f300608060405260043610610301576000357c0100000000000000000000000000000000000000000000000000000000900463ffffffff1680630131222f146103065780630834896d14610377578063099432db146103ec57806309f4f075146104315780630b8fd8f51461047657806313b618b3146104bb578063143e6f541461055457806315b359631461057457806322956025146105b957806323b063ae1461061857806324dab17414610649578063289b7de71461068e57806329ca1169146106d35780633c74a0911461071857806340905be71461075d57806340b8e144146107df578063471bdc9e146108245780634a16066d1461086957806351acfd3b146108ae57806352b3c7411461091357806354c7c612146109585780635f8f447a146109c957806361807f0014610a0e5780636ea736c714610a5557806371017b3b14610ab057806376a21f3514610af757806376e113a314610b3c578063829f934214610b81578063855dcc6b14610bed5780638659c80814610c3257806386ab377314610c77578063874bd51514610cd25780638b0f731614610d175780638caa80a514610d885780638dab050214610dd9578063a2462abc14610e34578063a4252b2314610e85578063a5a994f914610efc578063a9dd122514610f1c578063ab05ada714610f81578063b0ce739d14610fe6578063b14be51e14611089578063b18f41c2146110ee578063b372afd814611133578063b6864ecc14611184578063b6fc4fdc14611206578063b8f15f951461124b578063be1517841461126b578063c3a706cd14611295578063c4f77c37146112da578063cdb803df14611367578063dac80acc146113ae578063dd5bf22d146113f3578063df8dc7911461143a578063e04070aa146114c1578063e1014afa14611536578063e183859d146115a5578063e2b862cc1461160a578063e80571fa1461164f578063ea9a1e30146116ae578063ec36c63414611709578063f15ffb2b1461174e578063f1ea15671461177f578063f851a440146117f4578063fd33482d14611865575b600080fd5b34801561031257600080fd5b50d3801561031f57600080fd5b50d2801561032c57600080fd5b506103356118aa565b604051808273ffffffffffffffffffffffffffffffffffffffff1673ffffffffffffffffffffffffffffffffffffffff16815260200191505060405180910390f35b34801561038357600080fd5b50d3801561039057600080fd5b50d2801561039d57600080fd5b506103a66118b2565b60405180836103e760200280838360005b838110156103d25780820151818401526020810190506103b7565b505050509050018281526020019250505060405180910390f35b3480156103f857600080fd5b50d3801561040557600080fd5b50d2801561041257600080fd5b5061041b61195c565b6040518082815260200191505060405180910390f35b34801561043d57600080fd5b50d3801561044a57600080fd5b50d2801561045757600080fd5b5061046061196f565b6040518082815260200191505060405180910390f35b34801561048257600080fd5b50d3801561048f57600080fd5b50d2801561049c57600080fd5b506104a5611979565b6040518082815260200191505060405180910390f35b3480156104c757600080fd5b50d380156104d457600080fd5b50d280156104e157600080fd5b50610516600480360381019080803573ffffffffffffffffffffffffffffffffffffffff16906020019092919050505061197f565b6040518082600560200280838360005b83811015610541578082015181840152602081019050610526565b5050505090500191505060405180910390f35b61057260048036038101908080359060200190929190505050611a06565b005b34801561058057600080fd5b50d3801561058d57600080fd5b50d2801561059a57600080fd5b506105a3611bbd565b6040518082815260200191505060405180910390f35b3480156105c557600080fd5b50d380156105d257600080fd5b50d280156105df57600080fd5b506105fe60048036038101908080359060200190929190505050611bc7565b604051808215151515815260200191505060405180910390f35b34801561062457600080fd5b50d3801561063157600080fd5b50d2801561063e57600080fd5b50610647611c5a565b005b34801561065557600080fd5b50d3801561066257600080fd5b50d2801561066f57600080fd5b50610678611db1565b6040518082815260200191505060405180910390f35b34801561069a57600080fd5b50d380156106a757600080fd5b50d280156106b457600080fd5b506106bd611dbb565b6040518082815260200191505060405180910390f35b3480156106df57600080fd5b50d380156106ec57600080fd5b50d280156106f957600080fd5b50610702611dc1565b6040518082815260200191505060405180910390f35b34801561072457600080fd5b50d3801561073157600080fd5b50d2801561073e57600080fd5b50610747611dc7565b6040518082815260200191505060405180910390f35b34801561076957600080fd5b50d3801561077657600080fd5b50d2801561078357600080fd5b506107a260048036038101908080359060200190929190505050611dcd565b6040518087815260200186815260200185815260200184815260200183151515158152602001828152602001965050505050505060405180910390f35b3480156107eb57600080fd5b50d380156107f857600080fd5b50d2801561080557600080fd5b5061080e611e8a565b6040518082815260200191505060405180910390f35b34801561083057600080fd5b50d3801561083d57600080fd5b50d2801561084a57600080fd5b50610853611e90565b6040518082815260200191505060405180910390f35b34801561087557600080fd5b50d3801561088257600080fd5b50d2801561088f57600080fd5b50610898611e9a565b6040518082815260200191505060405180910390f35b3480156108ba57600080fd5b50d380156108c757600080fd5b50d280156108d457600080fd5b506108fd6004803603810190808035906020019092919080359060200190929190505050611eae565b6040518082815260200191505060405180910390f35b34801561091f57600080fd5b50d3801561092c57600080fd5b50d2801561093957600080fd5b50610942611ede565b6040518082815260200191505060405180910390f35b34801561096457600080fd5b50d3801561097157600080fd5b50d2801561097e57600080fd5b50610987611ee4565b604051808273ffffffffffffffffffffffffffffffffffffffff1673ffffffffffffffffffffffffffffffffffffffff16815260200191505060405180910390f35b3480156109d557600080fd5b50d380156109e257600080fd5b50d280156109ef57600080fd5b506109f8611f0d565b6040518082815260200191505060405180910390f35b348015610a1a57600080fd5b50d38015610a2757600080fd5b50d28015610a3457600080fd5b50610a5360048036038101908080359060200190929190505050611f17565b005b348015610a6157600080fd5b50d38015610a6e57600080fd5b50d28015610a7b57600080fd5b50610a9a60048036038101908080359060200190929190505050611f7c565b6040518082815260200191505060405180910390f35b348015610abc57600080fd5b50d38015610ac957600080fd5b50d28015610ad657600080fd5b50610af560048036038101908080359060200190929190505050612a26565b005b348015610b0357600080fd5b50d38015610b1057600080fd5b50d28015610b1d57600080fd5b50610b26612a8b565b6040518082815260200191505060405180910390f35b348015610b4857600080fd5b50d38015610b5557600080fd5b50d28015610b6257600080fd5b50610b6b612a91565b6040518082815260200191505060405180910390f35b348015610b8d57600080fd5b50d38015610b9a57600080fd5b50d28015610ba757600080fd5b50610beb6004803603810190808060a00190600580602002604051908101604052809291908260056020028082843782019150505050509192919290505050612a97565b005b348015610bf957600080fd5b50d38015610c0657600080fd5b50d28015610c1357600080fd5b50610c1c612acb565b6040518082815260200191505060405180910390f35b348015610c3e57600080fd5b50d38015610c4b57600080fd5b50d28015610c5857600080fd5b50610c61612ad5565b6040518082815260200191505060405180910390f35b348015610c8357600080fd5b50d38015610c9057600080fd5b50d28015610c9d57600080fd5b50610cbc60048036038101908080359060200190929190505050612adb565b6040518082815260200191505060405180910390f35b348015610cde57600080fd5b50d38015610ceb57600080fd5b50d28015610cf857600080fd5b50610d01612af3565b6040518082815260200191505060405180910390f35b348015610d2357600080fd5b50d38015610d3057600080fd5b50d28015610d3d57600080fd5b50610d72600480360381019080803573ffffffffffffffffffffffffffffffffffffffff169060200190929190505050612afd565b6040518082815260200191505060405180910390f35b348015610d9457600080fd5b50d38015610da157600080fd5b50d28015610dae57600080fd5b50610dd76004803603810190808035906020019092919080359060200190929190505050612b30565b005b348015610de557600080fd5b50d38015610df257600080fd5b50d28015610dff57600080fd5b50610e1e60048036038101908080359060200190929190505050612c53565b6040518082815260200191505060405180910390f35b348015610e4057600080fd5b50d38015610e4d57600080fd5b50d28015610e5a57600080fd5b50610e836004803603810190808035906020019092919080359060200190929190505050612f3e565b005b348015610e9157600080fd5b50d38015610e9e57600080fd5b50d28015610eab57600080fd5b50610eca60048036038101908080359060200190929190505050612fdb565b604051808681526020018581526020018481526020018381526020018281526020019550505050505060405180910390f35b610f1a60048036038101908080359060200190929190505050613020565b005b348015610f2857600080fd5b50d38015610f3557600080fd5b50d28015610f4257600080fd5b50610f6b60048036038101908080359060200190929190803590602001909291905050506131c6565b6040518082815260200191505060405180910390f35b348015610f8d57600080fd5b50d38015610f9a57600080fd5b50d28015610fa757600080fd5b50610fd06004803603810190808035906020019092919080359060200190929190505050613321565b6040518082815260200191505060405180910390f35b348015610ff257600080fd5b50d38015610fff57600080fd5b50d2801561100c57600080fd5b5061102b60048036038101908080359060200190929190505050613351565b604051808673ffffffffffffffffffffffffffffffffffffffff1673ffffffffffffffffffffffffffffffffffffffff1681526020018581526020018481526020018381526020018281526020019550505050505060405180910390f35b34801561109557600080fd5b50d380156110a257600080fd5b50d280156110af57600080fd5b506110d860048036038101908080359060200190929190803590602001909291905050506133b6565b6040518082815260200191505060405180910390f35b3480156110fa57600080fd5b50d3801561110757600080fd5b50d2801561111457600080fd5b5061111d6133e6565b6040518082815260200191505060405180910390f35b34801561113f57600080fd5b50d3801561114c57600080fd5b50d2801561115957600080fd5b5061118260048036038101908080359060200190929190803590602001909291905050506133f0565b005b34801561119057600080fd5b50d3801561119d57600080fd5b50d280156111aa57600080fd5b506111c960048036038101908080359060200190929190505050613422565b6040518087815260200186815260200185815260200184815260200183151515158152602001828152602001965050505050505060405180910390f35b34801561121257600080fd5b50d3801561121f57600080fd5b50d2801561122c57600080fd5b5061123561347a565b6040518082815260200191505060405180910390f35b61126960048036038101908080359060200190929190505050613484565b005b611293600480360381019080803590602001909291908035906020019092919050505061365a565b005b3480156112a157600080fd5b50d380156112ae57600080fd5b50d280156112bb57600080fd5b506112c461385b565b6040518082815260200191505060405180910390f35b3480156112e657600080fd5b50d380156112f357600080fd5b50d2801561130057600080fd5b50611309613861565b604051808673ffffffffffffffffffffffffffffffffffffffff1673ffffffffffffffffffffffffffffffffffffffff1681526020018581526020018481526020018381526020018281526020019550505050505060405180910390f35b34801561137357600080fd5b50d3801561138057600080fd5b50d2801561138d57600080fd5b506113ac60048036038101908080359060200190929190505050613984565b005b3480156113ba57600080fd5b50d380156113c757600080fd5b50d280156113d457600080fd5b506113dd613ad8565b6040518082815260200191505060405180910390f35b3480156113ff57600080fd5b50d3801561140c57600080fd5b50d2801561141957600080fd5b5061143860048036038101908080359060200190929190505050613ae2565b005b34801561144657600080fd5b50d3801561145357600080fd5b50d2801561146057600080fd5b5061147f60048036038101908080359060200190929190505050613b47565b604051808273ffffffffffffffffffffffffffffffffffffffff1673ffffffffffffffffffffffffffffffffffffffff16815260200191505060405180910390f35b3480156114cd57600080fd5b50d380156114da57600080fd5b50d280156114e757600080fd5b506114f0613c07565b604051808361270f60200280838360005b8381101561151c578082015181840152602081019050611501565b505050509050018281526020019250505060405180910390f35b34801561154257600080fd5b50d3801561154f57600080fd5b50d2801561155c57600080fd5b5061158f600480360381019080803590602001909291908035906020019092919080359060200190929190505050613cd9565b6040518082815260200191505060405180910390f35b3480156115b157600080fd5b50d380156115be57600080fd5b50d280156115cb57600080fd5b506115f46004803603810190808035906020019092919080359060200190929190505050613e3d565b6040518082815260200191505060405180910390f35b34801561161657600080fd5b50d3801561162357600080fd5b50d2801561163057600080fd5b50611639613e6d565b6040518082815260200191505060405180910390f35b34801561165b57600080fd5b50d3801561166857600080fd5b50d2801561167557600080fd5b5061169460048036038101908080359060200190929190505050613e73565b604051808215151515815260200191505060405180910390f35b3480156116ba57600080fd5b50d380156116c757600080fd5b50d280156116d457600080fd5b506116f360048036038101908080359060200190929190505050613fbf565b6040518082815260200191505060405180910390f35b34801561171557600080fd5b50d3801561172257600080fd5b50d2801561172f57600080fd5b50611738613fd7565b6040518082815260200191505060405180910390f35b34801561175a57600080fd5b50d3801561176757600080fd5b50d2801561177457600080fd5b5061177d613fea565b005b34801561178b57600080fd5b50d3801561179857600080fd5b50d280156117a557600080fd5b506117ae6143f7565b604051808361270f60200280838360005b838110156117da5780820151818401526020810190506117bf565b505050509050018281526020019250505060405180910390f35b34801561180057600080fd5b50d3801561180d57600080fd5b50d2801561181a57600080fd5b506118236144af565b604051808273ffffffffffffffffffffffffffffffffffffffff1673ffffffffffffffffffffffffffffffffffffffff16815260200191505060405180910390f35b34801561187157600080fd5b50d3801561187e57600080fd5b50d2801561188b57600080fd5b506118946144d4565b6040518082815260200191505060405180910390f35b600033905090565b6118ba6144e1565b60008060006118c76144e1565b60006118d233612afd565b9350601260008581526020019081526020016000209250600090505b828054905081101561193857828181548110151561190857fe5b906000526020600020015482826103e78110151561192257fe5b60200201818152505080806001019150506118ee565b81601260008681526020019081526020016000208054905095509550505050509091565b600061196a600160526131c6565b905090565b6000600154905090565b600b5481565b611987614506565b6000611991614506565b6000601360006119a087612afd565b81526020019081526020016000209250600090505b60058110156119fb5782818154811015156119cc57fe5b906000526020600020015482826005811015156119e557fe5b60200201818152505080806001019150506119b5565b819350505050919050565b6000611a10614529565b600a548310151515611a2157600080fd5b6000809054906101000a900473ffffffffffffffffffffffffffffffffffffffff1673ffffffffffffffffffffffffffffffffffffffff163373ffffffffffffffffffffffffffffffffffffffff167fddf252ad1be2c89b69c2b068fc378daa952ba7f163c4a11628f55a4df523b3ef856040518082815260200191505060405180910390a3611ab033612afd565b915060c060405190810160405280600e805490508152602001838152602001611ad761195c565b8152602001600081526020016000151581526020016000815250905060126000838152602001908152602001600020600e805490509080600181540180825580915050906001820390600052602060002001600090919290919091505550600e81908060018154018082558091505090600182039060005260206000209060060201600090919290919091506000820151816000015560208201518160010155604082015181600201556060820151816003015560808201518160040160006101000a81548160ff02191690831515021790555060a08201518160050155505050505050565b6000600a54905090565b6000611bd1614529565b600e83815481101515611be057fe5b906000526020600020906006020160c06040519081016040529081600082015481526020016001820154815260200160028201548152602001600382015481526020016004820160009054906101000a900460ff161515151581526020016005820154815250509050605181604001511115915050919050565b611c62614562565b6000600f611c6f33612afd565b815481101515611c7b57fe5b906000526020600020906005020160a060405190810160405290816000820160009054906101000a900473ffffffffffffffffffffffffffffffffffffffff1673ffffffffffffffffffffffffffffffffffffffff1673ffffffffffffffffffffffffffffffffffffffff1681526020016001820154815260200160028201548152602001600382015481526020016004820154815250509150620151808260200151420310151515611d2d57600080fd5b600c60003373ffffffffffffffffffffffffffffffffffffffff1681526020019081526020016000205490506005600f82815481101515611d6a57fe5b90600052602060002090600502016002016000828254019250508190555042600f82815481101515611d9857fe5b9060005260206000209060050201600101819055505050565b6000600854905090565b60025481565b60085481565b60015481565b600080600080600080611dde614529565b600e88815481101515611ded57fe5b906000526020600020906006020160c06040519081016040529081600082015481526020016001820154815260200160028201548152602001600382015481526020016004820160009054906101000a900460ff161515151581526020016005820154815250509050806000015181602001518260400151836060015184608001518560a001519650965096509650965096505091939550919395565b60045481565b6000600b54905090565b6000611ea9600161012d6131c6565b905090565b601360205281600052604060002081815481101515611ec957fe5b90600052602060002001600091509150505481565b600a5481565b60008060009054906101000a900473ffffffffffffffffffffffffffffffffffffffff16905090565b6000600354905090565b6000809054906101000a900473ffffffffffffffffffffffffffffffffffffffff1673ffffffffffffffffffffffffffffffffffffffff163373ffffffffffffffffffffffffffffffffffffffff16141515611f7257600080fd5b8060098190555050565b6000611f866145a8565b611de060405190810160405280600161ffff168152602001600261ffff168152602001600361ffff168152602001600461ffff168152602001600561ffff168152602001600661ffff168152602001600761ffff168152602001600861ffff168152602001600961ffff168152602001600a61ffff168152602001600b61ffff168152602001600c61ffff168152602001600d61ffff168152602001600e61ffff168152602001600f61ffff168152602001601061ffff168152602001601161ffff168152602001601261ffff168152602001601361ffff168152602001601461ffff168152602001601561ffff168152602001601661ffff168152602001601761ffff168152602001601861ffff168152602001601961ffff168152602001601a61ffff168152602001601b61ffff168152602001601c61ffff168152602001601d61ffff168152602001601e61ffff168152602001601f61ffff168152602001602061ffff168152602001602161ffff168152602001602261ffff168152602001602361ffff168152602001602461ffff168152602001602561ffff168152602001602661ffff168152602001602761ffff168152602001602861ffff168152602001602961ffff168152602001602a61ffff168152602001602b61ffff168152602001602c61ffff168152602001602d61ffff168152602001602e61ffff168152602001602f61ffff168152602001603061ffff168152602001603161ffff168152602001603261ffff168152602001603361ffff168152602001603461ffff168152602001603561ffff168152602001603661ffff168152602001603761ffff168152602001603861ffff168152602001603961ffff168152602001603a61ffff168152602001603b61ffff168152602001603c61ffff168152602001603d61ffff168152602001605261ffff168152602001605361ffff168152602001605461ffff168152602001605561ffff168152602001605661ffff168152602001605761ffff168152602001605861ffff168152602001605961ffff168152602001605a61ffff168152602001605b61ffff168152602001605c61ffff168152602001605d61ffff168152602001605e61ffff168152602001605f61ffff168152602001606061ffff168152602001606161ffff168152602001606261ffff168152602001606361ffff168152602001606461ffff168152602001606561ffff168152602001606661ffff168152602001606761ffff168152602001606861ffff168152602001606961ffff168152602001606a61ffff168152602001606b61ffff168152602001606c61ffff168152602001606d61ffff168152602001606e61ffff168152602001606f61ffff168152602001607061ffff168152602001607161ffff168152602001607261ffff168152602001607361ffff168152602001607461ffff168152602001607561ffff168152602001607661ffff168152602001607761ffff168152602001607861ffff168152602001607961ffff168152602001607a61ffff168152602001607b61ffff168152602001607c61ffff168152602001607d61ffff168152602001607e61ffff168152602001607f61ffff168152602001608061ffff168152602001608161ffff168152602001608261ffff168152602001608361ffff168152602001608461ffff168152602001608561ffff168152602001608661ffff168152602001608761ffff168152602001608861ffff168152602001608961ffff168152602001608a61ffff168152602001608b61ffff168152602001608c61ffff168152602001608d61ffff168152602001608e61ffff168152602001608f61ffff168152602001609061ffff168152602001609161ffff168152602001609261ffff168152602001609361ffff168152602001609461ffff168152602001609561ffff168152602001609661ffff168152602001609761ffff168152602001609861ffff168152602001609961ffff168152602001609a61ffff168152602001609b61ffff168152602001609c61ffff168152602001609d61ffff168152602001609e61ffff168152602001609f61ffff16815260200160a061ffff16815260200160a161ffff16815260200160a261ffff16815260200160a361ffff16815260200160a461ffff16815260200160a561ffff16815260200160a661ffff16815260200160a761ffff16815260200160a861ffff16815260200160a961ffff16815260200160aa61ffff16815260200160ac61ffff16815260200160ad61ffff16815260200160ae61ffff16815260200160af61ffff16815260200160b061ffff16815260200160b161ffff16815260200160b561ffff16815260200160b661ffff16815260200160b761ffff16815260200160b861ffff16815260200160c261ffff16815260200160c361ffff16815260200160c461ffff16815260200160c861ffff16815260200160c961ffff16815260200160cd61ffff16815260200160ce61ffff16815260200160cf61ffff16815260200160d161ffff16815260200160d261ffff16815260200160d361ffff16815260200160d461ffff16815260200160d561ffff16815260200160d861ffff16815260200160d961ffff16815260200160db61ffff16815260200160dc61ffff16815260200160e061ffff16815260200160e161ffff16815260200160e461ffff16815260200160e661ffff16815260200160e761ffff16815260200160e861ffff16815260200160e961ffff16815260200160ea61ffff16815260200160eb61ffff16815260200160ec61ffff16815260200160ed61ffff16815260200160ee61ffff16815260200160ef61ffff16815260200160f061ffff16815260200160f161ffff16815260200160f261ffff16815260200160f361ffff16815260200160f461ffff16815260200160f561ffff16815260200160f661ffff16815260200160f761ffff16815260200160f861ffff16815260200160f961ffff16815260200160fa61ffff16815260200160fd61ffff16815260200160fe61ffff16815260200160ff61ffff16815260200161010061ffff16815260200161010161ffff16815260200161010261ffff16815260200161010361ffff16815260200161010461ffff16815260200161010561ffff16815260200161010661ffff16815260200161010761ffff16815260200161010861ffff16815260200161010961ffff16815260200161010a61ffff16815260200161010b61ffff16815260200161010c61ffff16815260200161010d61ffff16815260200161010f61ffff16815260200161011061ffff16815260200161011161ffff16815260200161011261ffff16815260200161011361ffff16815260200161011461ffff16815260200161011661ffff16815260200161011761ffff16815260200161011961ffff16815260200161011a61ffff16815260200161011c61ffff16815260200161011d61ffff16815260200161011e61ffff16815260200161012061ffff16815260200161012161ffff16815260200161012561ffff16815260200161012661ffff16815260200161012861ffff16815260200161012961ffff16815260200161012a61ffff16815260200161012c61ffff16815250905080612a09600060ef86613cd9565b60ef81101515612a1557fe5b602002015161ffff16915050919050565b6000809054906101000a900473ffffffffffffffffffffffffffffffffffffffff1673ffffffffffffffffffffffffffffffffffffffff163373ffffffffffffffffffffffffffffffffffffffff16141515612a8157600080fd5b80600b8190555050565b60075481565b60055481565b6000612aa233612afd565b90508160136000838152602001908152602001600020906005612ac69291906145cc565b505050565b6000600954905090565b60035481565b600d6020528060005260406000206000915090505481565b6000600254905090565b6000600c60008373ffffffffffffffffffffffffffffffffffffffff168152602001908152602001600020549050919050565b612b38614529565b6000600e84815481101515612b4957fe5b906000526020600020906006020160c06040519081016040529081600082015481526020016001820154815260200160028201548152602001600382015481526020016004820160009054906101000a900460ff161515151581526020016005820154815250509150612bbb33612afd565b9050808260200151148015612bd257508160800151155b8015612be45750612be284613e73565b155b1515612bef57600080fd5b82600e85815481101515612bff57fe5b9060005260206000209060060201600501819055506001600e85815481101515612c2557fe5b906000526020600020906006020160040160006101000a81548160ff02191690831515021790555050505050565b6000612c5d614619565b6107a060405190810160405280603e61ffff168152602001603f61ffff168152602001604061ffff168152602001604161ffff168152602001604261ffff168152602001604361ffff168152602001604461ffff168152602001604561ffff168152602001604661ffff168152602001604761ffff168152602001604861ffff168152602001604961ffff168152602001604a61ffff168152602001604b61ffff168152602001604c61ffff168152602001604d61ffff168152602001604e61ffff168152602001604f61ffff168152602001605061ffff168152602001605161ffff16815260200160ab61ffff16815260200160b261ffff16815260200160b361ffff16815260200160b461ffff16815260200160b961ffff16815260200160ba61ffff16815260200160bb61ffff16815260200160bc61ffff16815260200160bd61ffff16815260200160be61ffff16815260200160bf61ffff16815260200160c061ffff16815260200160c161ffff16815260200160c561ffff16815260200160c661ffff16815260200160c761ffff16815260200160ca61ffff16815260200160cb61ffff16815260200160cc61ffff16815260200160d061ffff16815260200160d661ffff16815260200160d761ffff16815260200160da61ffff16815260200160dd61ffff16815260200160de61ffff16815260200160df61ffff16815260200160e261ffff16815260200160e361ffff16815260200160e561ffff16815260200160fb61ffff16815260200160fc61ffff16815260200161010e61ffff16815260200161011561ffff16815260200161011861ffff16815260200161011b61ffff16815260200161011f61ffff16815260200161012261ffff16815260200161012361ffff16815260200161012461ffff16815260200161012761ffff16815260200161012b61ffff16815250905080612f216000603d86613cd9565b603d81101515612f2d57fe5b602002015161ffff16915050919050565b612f46614506565b600080612f523361197f565b9250600091505b6005821015612fa657848383600581101515612f7157fe5b60200201511415612f9957838383600581101515612f8b57fe5b602002018181525050612fa6565b8180600101925050612f59565b612faf33612afd565b90508260136000838152602001908152602001600020906005612fd39291906145cc565b505050505050565b601081815481101515612fea57fe5b90600052602060002090600502016000915090508060000154908060010154908060020154908060030154908060040154905085565b600061302a614529565b6000809054906101000a900473ffffffffffffffffffffffffffffffffffffffff1673ffffffffffffffffffffffffffffffffffffffff163373ffffffffffffffffffffffffffffffffffffffff167fddf252ad1be2c89b69c2b068fc378daa952ba7f163c4a11628f55a4df523b3ef856040518082815260200191505060405180910390a36130b933612afd565b915060c060405190810160405280600e8054905081526020018381526020016130e0613fd7565b8152602001600081526020016000151581526020016000815250905060126000838152602001908152602001600020600e805490509080600181540180825580915050906001820390600052602060002001600090919290919091505550600e81908060018154018082558091505090600182039060005260206000209060060201600090919290919091506000820151816000015560208201518160010155604082015181600201556060820151816003015560808201518160040160006101000a81548160ff02191690831515021790555060a08201518160050155505050505050565b600080838303426040516020018082815260200191505060405160208183030381529060405233446040516020018084805190602001908083835b6020831015156132265780518252602082019150602081019050602083039250613201565b6001836020036101000a0380198251168184511680821785525050505050509050018373ffffffffffffffffffffffffffffffffffffffff1673ffffffffffffffffffffffffffffffffffffffff166c0100000000000000000000000002815260140182815260200193505050506040516020818303038152906040526040518082805190602001908083835b6020831015156132d857805182526020820191506020810190506020830392506132b3565b6001836020036101000a03801982511681845116808217855250505050505090500191505060405180910390206001900481151561331257fe5b06905083810191505092915050565b60116020528160005260406000208181548110151561333c57fe5b90600052602060002001600091509150505481565b600f8181548110151561336057fe5b90600052602060002090600502016000915090508060000160009054906101000a900473ffffffffffffffffffffffffffffffffffffffff16908060010154908060020154908060030154908060040154905085565b6012602052816000526040600020818154811015156133d157fe5b90600052602060002001600091509150505481565b6000600654905090565b80600e8381548110151561340057fe5b9060005260206000209060060201600301600082825401925050819055505050565b600e8181548110151561343157fe5b90600052602060002090600602016000915090508060000154908060010154908060020154908060030154908060040160009054906101000a900460ff16908060050154905086565b6000600554905090565b61348c614562565b6000600b548311151561349e57600080fd5b600f6134a933612afd565b8154811015156134b557fe5b906000526020600020906005020160a060405190810160405290816000820160009054906101000a900473ffffffffffffffffffffffffffffffffffffffff1673ffffffffffffffffffffffffffffffffffffffff1673ffffffffffffffffffffffffffffffffffffffff16815260200160018201548152602001600282015481526020016003820154815260200160048201548152505091506000809054906101000a900473ffffffffffffffffffffffffffffffffffffffff1673ffffffffffffffffffffffffffffffffffffffff163373ffffffffffffffffffffffffffffffffffffffff167fddf252ad1be2c89b69c2b068fc378daa952ba7f163c4a11628f55a4df523b3ef856040518082815260200191505060405180910390a3600c60003373ffffffffffffffffffffffffffffffffffffffff1681526020019081526020016000205490506005600f8281548110151561361257fe5b90600052602060002090600502016002016000828254019250508190555042600f8281548110151561364057fe5b906000526020600020906005020160010181905550505050565b613662614529565b600080600e8581548110151561367457fe5b906000526020600020906006020160c06040519081016040529081600082015481526020016001820154815260200160028201548152602001600382015481526020016004820160009054906101000a900460ff1615151515815260200160058201548152505092506136e633612afd565b9150826080015180156136fd5750838360a0015111155b151561370857600080fd5b600f8281548110151561371757fe5b906000526020600020906005020160000160009054906101000a900473ffffffffffffffffffffffffffffffffffffffff1690508073ffffffffffffffffffffffffffffffffffffffff163373ffffffffffffffffffffffffffffffffffffffff167fddf252ad1be2c89b69c2b068fc378daa952ba7f163c4a11628f55a4df523b3ef866040518082815260200191505060405180910390a36137b985613984565b6012600083815260200190815260200160002085908060018154018082558091505090600182039060005260206000200160009091929091909150555081600e8681548110151561380657fe5b9060005260206000209060060201600101819055506000600e8681548110151561382c57fe5b906000526020600020906006020160040160006101000a81548160ff0219169083151502179055505050505050565b60065481565b6000806000806000806000613874614562565b33925061388083612afd565b915060008214156138ad57336000806000808393508292508191508090509750975097509750975061397a565b600f828154811015156138bc57fe5b906000526020600020906005020160a060405190810160405290816000820160009054906101000a900473ffffffffffffffffffffffffffffffffffffffff1673ffffffffffffffffffffffffffffffffffffffff1673ffffffffffffffffffffffffffffffffffffffff168152602001600182015481526020016002820154815260200160038201548152602001600482015481525050905080600001518160600151826020015183604001518460800151975097509750975097505b5050509091929394565b600080600080600e8581548110151561399957fe5b906000526020600020906006020160010154935061270f9250600091505b6012600085815260200190815260200160002080549050821015613a1c578460126000868152602001908152602001600020838154811015156139f657fe5b90600052602060002001541415613a0f57819250613a1c565b81806001019250506139b7565b8290505b6001601260008681526020019081526020016000208054905003811015613aaa576012600085815260200190815260200160002060018201815481101515613a6457fe5b90600052602060002001546012600086815260200190815260200160002082815481101515613a8f57fe5b90600052602060002001819055508080600101915050613a20565b60126000858152602001908152602001600020805480919060019003613ad0919061463d565b505050505050565b6000600754905090565b6000809054906101000a900473ffffffffffffffffffffffffffffffffffffffff1673ffffffffffffffffffffffffffffffffffffffff163373ffffffffffffffffffffffffffffffffffffffff16141515613b3d57600080fd5b80600a8190555050565b6000613b51614562565b600f83815481101515613b6057fe5b906000526020600020906005020160a060405190810160405290816000820160009054906101000a900473ffffffffffffffffffffffffffffffffffffffff1673ffffffffffffffffffffffffffffffffffffffff1673ffffffffffffffffffffffffffffffffffffffff16815260200160018201548152602001600282015481526020016003820154815260200160048201548152505090508060000151915050919050565b613c0f614669565b6000613c19614669565b60008060009150600090505b600f80549050811015613ccc57600f81815481101515613c4157fe5b906000526020600020906005020160000160009054906101000a900473ffffffffffffffffffffffffffffffffffffffff16838261270f81101515613c8257fe5b602002019073ffffffffffffffffffffffffffffffffffffffff16908173ffffffffffffffffffffffffffffffffffffffff16815250506001820191508080600101915050613c25565b8282945094505050509091565b60008084840342604051602001808281526020019150506040516020818303038152906040523344866040516020018085805190602001908083835b602083101515613d3a5780518252602082019150602081019050602083039250613d15565b6001836020036101000a0380198251168184511680821785525050505050509050018473ffffffffffffffffffffffffffffffffffffffff1673ffffffffffffffffffffffffffffffffffffffff166c010000000000000000000000000281526014018381526020018281526020019450505050506040516020818303038152906040526040518082805190602001908083835b602083101515613df35780518252602082019150602081019050602083039250613dce565b6001836020036101000a038019825116818451168082178552505050505050905001915050604051809103902060019004811515613e2d57fe5b0690508481019150509392505050565b601460205281600052604060002081815481101515613e5857fe5b90600052602060002001600091509150505481565b60095481565b6000613e7d614529565b600060606000600e86815481101515613e9257fe5b906000526020600020906006020160c06040519081016040529081600082015481526020016001820154815260200160028201548152602001600382015481526020016004820160009054906101000a900460ff161515151581526020016005820154815250509350613f0433612afd565b925060136000848152602001908152602001600020805480602002602001604051908101604052809291908181526020018280548015613f6357602002820191906000526020600020905b815481526020019060010190808311613f4f575b50505050509150600090505b6005811015613fb15783600001518282815181101515613f8b57fe5b906020019060200201511415613fa45760019450613fb6565b8080600101915050613f6f565b600094505b50505050919050565b600c6020528060005260406000206000915090505481565b6000613fe5600160db6131c6565b905090565b600080613ff5614562565b6000613fff614529565b614007614529565b33955061401386612afd565b945060008514156143ef5760a0604051908101604052808773ffffffffffffffffffffffffffffffffffffffff168152602001428152602001600581526020016000815260200160008152509350600f849080600181540180825580915050906001820390600052602060002090600502016000909192909190915060008201518160000160006101000a81548173ffffffffffffffffffffffffffffffffffffffff021916908373ffffffffffffffffffffffffffffffffffffffff160217905550602082015181600101556040820151816002015560608201518160030155608082015181600401555050506001600f8054905003945084600c60008873ffffffffffffffffffffffffffffffffffffffff16815260200190815260200160002081905550600092505b60048310156142a15760c060405190810160405280600e80549050815260200186815260200161416e85611f7c565b8152602001600081526020016000151581526020016000815250915060126000868152602001908152602001600020600e805490509080600181540180825580915050906001820390600052602060002001600090919290919091505550600e82908060018154018082558091505090600182039060005260206000209060060201600090919290919091506000820151816000015560208201518160010155604082015181600201556060820151816003015560808201518160040160006101000a81548160ff02191690831515021790555060a08201518160050155505050601360008681526020019081526020016000206001600e80549050039080600181540180825580915050906001820390600052602060002001600090919290919091505550828060010193505061413f565b60c060405190810160405280600e8054905081526020018681526020016142c86004612c53565b8152602001600081526020016000151581526020016000815250905060126000868152602001908152602001600020600e805490509080600181540180825580915050906001820390600052602060002001600090919290919091505550600e81908060018154018082558091505090600182039060005260206000209060060201600090919290919091506000820151816000015560208201518160010155604082015181600201556060820151816003015560808201518160040160006101000a81548160ff02191690831515021790555060a08201518160050155505050601360008681526020019081526020016000206001600e805490500390806001815401808255809150509060018203906000526020600020016000909192909190915055505b505050505050565b6143ff61468f565b600061440961468f565b60008060009150600090505b600e805490508110156144a257600e8181548110151561443157fe5b906000526020600020906006020160040160009054906101000a900460ff161561449557600e8181548110151561446457fe5b906000526020600020906006020160000154838380600101945061270f8110151561448b57fe5b6020020181815250505b8080600101915050614415565b8282945094505050509091565b6000809054906101000a900473ffffffffffffffffffffffffffffffffffffffff1681565b6000600f80549050905090565b617ce0604051908101604052806103e790602082028038833980820191505090505090565b60a060405190810160405280600590602082028038833980820191505090505090565b60c06040519081016040528060008152602001600081526020016000815260200160008152602001600015158152602001600081525090565b60a060405190810160405280600073ffffffffffffffffffffffffffffffffffffffff168152602001600081526020016000815260200160008152602001600081525090565b611de06040519081016040528060ef90602082028038833980820191505090505090565b828054828255906000526020600020908101928215614608579160200282015b828111156146075782518255916020019190600101906145ec565b5b50905061461591906146b5565b5090565b6107a060405190810160405280603d90602082028038833980820191505090505090565b8154818355818111156146645781836000526020600020918201910161466391906146b5565b5b505050565b6204e1e06040519081016040528061270f90602082028038833980820191505090505090565b6204e1e06040519081016040528061270f90602082028038833980820191505090505090565b6146d791905b808211156146d35760008160009055506001016146bb565b5090565b905600a165627a7a723058200c04c4253cbfe2aba8d06de0cf98bcd4b417bfa7ce355516fc6fe6cc58ff5c700029",
  "source": "/**\n     jj.length-=18cm\n */\npragma solidity >=0.4.21;\n\ncontract Football {\n\n    address public admin;\n    uint256 public userMap_cnt;\n    uint256 public common_count;\n    uint256 public vip_count;\n    uint256 public rankMap_cnt;\n    uint256 public cardMap_cnt;\n    uint256 public power_count;\n    uint256 public matchMap_cnt;\n    uint256 public saleCardMap_cnt;\n    uint256 public common_card_price = 1;\n    uint256 public vip_card_price = 1;\n    uint256 public power_price=5;\n\n    mapping(uint256=>uint256) public user_map;//addressiduser_idaddress\n    mapping(uint256=>uint256) public contest_map;//idid\n    \n    Card[] public card_list;//id\n    User[] public user_list;//id\n    Contest[] public contest_list;//id\n\n\n    mapping(uint256=>uint256[]) public user_contest_map;//,id\n    mapping(uint256=>uint256[]) public user_card_map;//id\n    mapping(uint256=>uint256[]) public user_team_map;//cardid\n    mapping(uint256=>uint256[]) public onmarket_map;//\n\n    event Transfer(address indexed _from, address indexed _to, uint256 _value);\n    //idid\n    struct Card { \n        uint256  card_id;\n        uint256  owner_id;\n        uint256  player_id;\n        uint256  level;\n        bool  on_market;\n        uint256 card_price;\n    }\n\n    //(truelist,\n    struct User {\n        address user_address;\n        uint256 last_time;\n        uint256 power;\n        uint256 user_card_cnt;\n        uint256 user_contest_cnt;\n    }\n\n    //\n    struct Contest {\n        uint256 my_id;\n        uint256 challenger_id;\n        uint256 my_score;\n        uint256 challenger_score;\n        uint256 team_point;\n    }\n\n    constructor() public{\n        admin = address(0);\n        userMap_cnt = 1;\n        common_count = 1;\n        vip_count = 1;\n        rankMap_cnt = 1;\n        cardMap_cnt = 1;\n        power_count = 1;\n        matchMap_cnt = 1;\n        saleCardMap_cnt = 1;\n        common_card_price = 3;\n        vip_card_price = 1;\n        power_price = 1;\n        User memory user = User(address(0),now,0,0,0);\n        user_list.push(user);\n        Card memory card = Card(0,0,0,0,false,0);\n        card_list.push(card);\n            \n    }\n     \n    //\n    function random(uint256 begin,uint256 end) public view returns(uint256) {\n        uint256 number = uint256(keccak256(abi.encodePacked(abi.encodePacked(now),msg.sender,block.difficulty))) % (end-begin);\n        return number+begin;\n    }\n\n    function salt_random(uint256 begin,uint256 end,uint256 salt) public view returns(uint256) {\n        uint256 number = uint256(keccak256(abi.encodePacked(abi.encodePacked(now),msg.sender,block.difficulty,salt))) % (end-begin);\n        return number+begin;\n    }\n\n    function get_matchMap_cnt() public view returns(uint256) {\n        return matchMap_cnt;\n    }\n\n    function get_address() public view returns(address) {\n        return msg.sender;\n    }\n\n    function get_userMap_cnt() public view returns(uint256) {\n        return userMap_cnt;\n    }\n\n    function get_cardMap_cnt() public view returns(uint256) {\n        return cardMap_cnt;\n    }\n    \n    function get_vip_count() public view returns(uint256) {\n        return vip_count;\n    }\n\n    function get_common_count() public view returns(uint256) {\n        return common_count;\n    }\n\n    function get_power_count() public view returns(uint256) {\n        return power_count;\n    }\n\n    function get_saleCardMap_cnt() public view returns(uint256) {\n        return saleCardMap_cnt;\n    }\n    \n    function random_all_card() public view returns(uint256) {\n        return uint256(random(1,301));\n    }\n\n    function random_goalkeeper_card(uint256 salt) public view returns(uint256) {\n        uint16[61] memory goalKeeperList = [62 , 63 , 64 , 65 , 66 , 67 , 68 , 69 , 70 , 71 , 72 , 73 , 74 , 75 , 76 , 77 , 78 , 79 , 80 , 81 , 171 , 178 , 179 , 180 , 185 , 186 , 187 , 188 , 189 , 190 , 191 , 192 , 193 , 197 , 198 , 199 , 202 , 203 , 204 , 208 , 214 , 215 , 218 , 221 , 222 , 223 , 226 , 227 , 229 , 251 , 252 , 270 , 277 , 280 , 283 , 287 , 290 , 291 , 292 , 295 , 299];\n        return goalKeeperList[salt_random(0, goalKeeperList.length,salt)];\n    }\n\n    function random_not_goalkeeper_card(uint256 salt) public view returns(uint256) {\n        uint16[239] memory notGoalKeeperList =[1 , 2 , 3 , 4 , 5 , 6 , 7 , 8 , 9 , 10 , 11 , 12 , 13 , 14 , 15 , 16 , 17 , 18 , 19 , 20 , 21 , 22 , 23 , 24 , 25 , 26 , 27 , 28 , 29 , 30 , 31 , 32 , 33 , 34 , 35 , 36 , 37 , 38 , 39 , 40 , 41 , 42 , 43 , 44 , 45 , 46 , 47 , 48 , 49 , 50 , 51 , 52 , 53 , 54 , 55 , 56 , 57 , 58 , 59 , 60 , 61 , 82 , 83 , 84 , 85 , 86 , 87 , 88 , 89 , 90 , 91 , 92 , 93 , 94 , 95 , 96 , 97 , 98 , 99 , 100 , 101 , 102 , 103 , 104 , 105 , 106 , 107 , 108 , 109 , 110 , 111 , 112 , 113 , 114 , 115 , 116 , 117 , 118 , 119 , 120 , 121 , 122 , 123 , 124 , 125 , 126 , 127 , 128 , 129 , 130 , 131 , 132 , 133 , 134 , 135 , 136 , 137 , 138 , 139 , 140 , 141 , 142 , 143 , 144 , 145 , 146 , 147 , 148 , 149 , 150 , 151 , 152 , 153 , 154 , 155 , 156 , 157 , 158 , 159 , 160 , 161 , 162 , 163 , 164 , 165 , 166 , 167 , 168 , 169 , 170 , 172 , 173 , 174 , 175 , 176 , 177 , 181 , 182 , 183 , 184 , 194 , 195 , 196 , 200 , 201 , 205 , 206 , 207 , 209 , 210 , 211 , 212 , 213 , 216 , 217 , 219 , 220 , 224 , 225 , 228 , 230 , 231 , 232 , 233 , 234 , 235 , 236 , 237 , 238 , 239 , 240 , 241 , 242 , 243 , 244 , 245 , 246 , 247 , 248 , 249 , 250 , 253 , 254 , 255 , 256 , 257 , 258 , 259 , 260 , 261 , 262 , 263 , 264 , 265 , 266 , 267 , 268 , 269 , 271 , 272 , 273 , 274 , 275 , 276 , 278 , 279 , 281 , 282 , 284 , 285 , 286 , 288 , 289 , 293 , 294 , 296 , 297 , 298 , 300];\n        return notGoalKeeperList[salt_random(0, notGoalKeeperList.length,salt)];\n    }\n\n    function random_vip_card() public view returns(uint256) {\n        return uint256(random(1,82));\n    }\n    function random_common_card() public view returns(uint256) {\n        return uint256(random(1,219));\n    }\n\n    function get_admin() public view returns(address) {\n        return admin;\n    }\n\n    function get_common_card_price() public view returns(uint256) {\n        return common_card_price;\n    }\n    \n    function get_vip_card_price() public view returns(uint256) {\n        return vip_card_price;\n    }\n\n    function get_power_price() public view returns(uint256) {\n        return power_price;\n    }\n\n    function set_common_card_price(uint256 price) public {\n        require(msg.sender == admin);\n        common_card_price = price;\n    }\n\n    function set_vip_card_price(uint256 price) public {\n        require(msg.sender == admin);\n        vip_card_price = price;\n    }\n\n    function set_power_price(uint256 price) public {\n        require(msg.sender == admin);\n        power_price = price;\n    }\n\n    // \n    function user_register() public {\n        address user_from = msg.sender;\n        uint256 user_id = get_user_id(user_from);\n        if (user_id == 0){\n            User memory user = User(user_from,now,5,0,0);\n            user_list.push(user);\n            user_id = user_list.length-1;\n            user_map[uint256(user_from)] = user_id;\n            for(uint256 i=0;i<4;i++) {\n                Card memory card = Card(card_list.length,user_id,random_not_goalkeeper_card(i),0,false,0);\n                user_card_map[user_id].push(card_list.length);\n                card_list.push(card);\n                user_team_map[user_id].push(card_list.length-1);\n            }\n            Card memory card2 = Card(card_list.length,user_id,random_goalkeeper_card(4),0,false,0);\n            user_card_map[user_id].push(card_list.length);\n            card_list.push(card2);\n            user_team_map[user_id].push(card_list.length-1);\n        }\n    }\n    \n    //\n    function user_login() public view returns(address,uint256,uint256,uint256,uint256){\n        address user_from = msg.sender;\n        uint256 user_id = get_user_id(user_from);\n        if (user_id == 0){\n            return (msg.sender,0,0,0,0);\n        }\n        User memory user = user_list[user_id];\n        return (user.user_address,user.user_card_cnt,user.last_time,user.power,user.user_contest_cnt);\n    }\n    \n    // user_idaddress\n    function get_user_address(uint256 user_id) public view returns(address) {\n        User memory user = user_list[user_id];\n        return user.user_address;\n      \n    }\n    function get_user_id(address user_address) public view returns(uint256) {\n        return user_map[uint256(user_address)];\n    }\n\n    function get_user_count() public view returns(uint256) {\n        return user_list.length;\n    }\n    \n    //card_id\n    function get_user_team(address user_address) public view returns(uint256[5] memory) {\n        uint256[] storage temp_team =  user_team_map[get_user_id(user_address)];\n        uint256[5] memory user_team;\n        for(uint256 i=0;i<5;i++){\n            user_team[i] = temp_team[i];\n        }\n        return user_team;\n    }\n     \n    //\n    function get_user_all_card() public view returns(uint256[999] memory ,uint256){\n        uint256 user_id = get_user_id(msg.sender);\n        uint256[] storage temp_card_list = user_card_map[user_id];\n        uint256[999] memory user_all_card;\n        for(uint256 i=0;i<temp_card_list.length;i++) {\n            user_all_card[i] = temp_card_list[i];\n        }\n        return (user_all_card,user_card_map[user_id].length);\n    }\n\n    //\n    function buy_power(uint256 value) public payable{\n        require(value > power_price);\n        User memory user = user_list[get_user_id(msg.sender)];\n        //require(now-user.last_time>=86400);\n        emit Transfer(msg.sender, admin, value);\n        uint256 user_id = user_map[uint256(msg.sender)];\n        user_list[user_id].power+=5;\n        user_list[user_id].last_time = now;\n    }\n    \n    //get free power\n    function get_power_power() public{\n        User memory user = user_list[get_user_id(msg.sender)];\n        require(now-user.last_time>=86400);\n        uint256 user_id = user_map[uint256(msg.sender)];\n        user_list[user_id].power+=5;\n        user_list[user_id].last_time = now;\n    }\n    //get all user\n    function get_all_users() public view returns(address[9999] memory,uint256){\n        address[9999] memory all_user_address;\n        uint256 user_count = 0;\n        for(uint256 i=0;i<user_list.length;i++) {\n            all_user_address[i] = user_list[i].user_address;\n            user_count+=1;\n        }\n        return (all_user_address,user_count);\n    }\n    //\n    function get_card_info(uint256 card_id) public view returns(uint256,uint256,uint256,uint256,bool,uint256) {\n        Card memory card = card_list[card_id];\n        return (card.card_id,card.owner_id,card.player_id,card.level,card.on_market,card.card_price);\n    }\n\n    //vip\n    function judge_card_vip(uint256 card_id) public view returns(bool) {\n        Card memory card = card_list[card_id];\n        return card.player_id<=81; \n    }\n\n    //\n    function buy_common_card(uint256 value) public payable{\n        // require(value >= common_card_price);\n        emit Transfer(msg.sender, admin, value);\n        uint256 user_id = get_user_id(msg.sender);\n        Card memory card = Card(card_list.length,user_id,random_common_card(),0,false,0);\n        user_card_map[user_id].push(card_list.length);\n        card_list.push(card);\n    }\n    \n    //vip\n    function buy_vip_card(uint256 value) public payable{\n        require(value >= vip_card_price);\n        emit Transfer(msg.sender, admin, value);\n        uint256 user_id = get_user_id(msg.sender);\n        Card memory card = Card(card_list.length,user_id,random_vip_card(),0,false,0);\n        user_card_map[user_id].push(card_list.length);\n        card_list.push(card);\n    }\n\n    //\n    function change_team(uint256 old_card_id, uint256 new_card_id) public {\n        uint256[5] memory user_team = get_user_team(msg.sender);\n        for(uint256 i=0;i<5;i++){\n            if(user_team[i] == old_card_id){\n                user_team[i] = new_card_id;\n                break;\n            }\n        }\n        uint256 user_id = get_user_id(msg.sender);\n        user_team_map[user_id] = user_team;\n    }\n    \n    //\n    function set_team(uint256[5] memory new_team) public {\n        uint256 user_id = get_user_id(msg.sender);\n        user_team_map[user_id] = new_team;\n    }\n    \n    \n    //card\n    function is_card_in_team(uint256 card_id) public view returns(bool) {\n        Card memory card = card_list[card_id];\n        uint256 user_id = get_user_id(msg.sender);\n        uint256[] memory user_team = user_team_map[user_id];\n        for(uint256 i=0;i<5;i++){\n            if(user_team[i] == card.card_id){\n                return true;\n            }\n        }\n        return false;\n    }\n\n    //\n    function sale_card(uint256 card_id, uint256 card_price) public {\n        Card memory card = card_list[card_id];\n        uint256 user_id = get_user_id(msg.sender);\n        require(card.owner_id == user_id && !card.on_market && !is_card_in_team(card_id));\n        card_list[card_id].card_price = card_price;\n        card_list[card_id].on_market = true;\n    }\n    \n    // card\n    function get_all_card_on_market() view public returns(uint256[9999] memory ,uint256 ) {\n        uint256[9999] memory card_on_market;\n        uint256 card_count = 0;\n        for(uint256 i=0;i<card_list.length;i++) {\n            if(card_list[i].on_market) {\n                card_on_market[card_count++] = card_list[i].card_id;\n            }\n        }\n        return (card_on_market,card_count);\n    }\n    //\n    function remove_card_from_user_card_map(uint256 card_id) public {\n        uint256 user_id = card_list[card_id].owner_id;\n        uint256 begin = 9999;\n        for(uint i=0;i<user_card_map[user_id].length;i++) {\n            if(user_card_map[user_id][i] == card_id) {\n                begin = i;\n                break;\n            }\n        }\n        for(uint j=begin;j<user_card_map[user_id].length-1;j++) {\n            user_card_map[user_id][j] = user_card_map[user_id][j+1];\n        }\n        user_card_map[user_id].length--;\n    }\n    //\n    function buy_card(uint256 card_id, uint256 value) public payable{\n        Card memory card = card_list[card_id];\n        uint256 user_id = get_user_id(msg.sender);\n        require(card.on_market && card.card_price<=value);\n        address card_owner_address = user_list[user_id].user_address;\n        emit Transfer(msg.sender, card_owner_address, value);//\n        remove_card_from_user_card_map(card_id);//owner cardlist\n        user_card_map[user_id].push(card_id);//cardlist\n        card_list[card_id].owner_id = user_id;//\n        card_list[card_id].on_market = false;//\n    }\n\n    //add levle\n    function add_level(uint256 card_id, uint256 add) public {\n        card_list[card_id].level+=add;\n    }\n}\n",
  "sourcePath": "/Users/liyuankun/Documents/tron/TronFootball/trontest/contracts/Football.sol",
  "compiler": {
    "name": "solc",
    "version": "0.4.25+commit.de5b8e25.mod.Emscripten.clang"
  },
  "schemaVersion": "2.0.1",
  "updatedAt": "2019-01-05T02:11:26.333Z"
}